:020000040800F2
:10000000E80900200502000855230008511B0008DC
:10001000C9220008090700085D430008000000002D
:100020000000000000000000000000007531000822
:10003000C90A0008000000005923000839320008EE
:100040001F0200081F0200081F0200081F0200080C
:100050001F0200081F0200081F0200081F020008FC
:100060001F0200081F0200081F0200081F020008EC
:100070001F0200081F0200081F0200081F020008DC
:100080001F0200081F0200081F0200081F020008CC
:100090001F0200081F0200081F0200081F020008BC
:1000A0001F0200081F0200081F0200081F020008AC
:1000B0001F0200081F0200081F0200081F0200089C
:1000C0001F0200081F0200081F0200081F0200088C
:1000D0001F0200081F0200081F0200081F0200087C
:1000E0001F0200081F0200081F02000800F002F8AB
:1000F00000F078F814A696E8000CB244B344DA4550
:1001000001D100F06FF8BAE80F000FA696E83000B2
:10011000A5EB040504EB0607AAEB0704A7F101070A
:100120004FEA15154FEA3414A4F10104AC4201D38F
:1001300000F058F813F0010F18BFFB1A43F0010349
:1001400000F001F8DBE71847A86D0000C86D00005B
:100150000A444FF0000C10F8013B13F0070408BFED
:1001600010F8014B1D1108BF10F8015B641E05D08B
:1001700010F8016B641E01F8016BF9D113F0080F40
:100180001EBF10F8014BAD1C0C1B09D16D1E58BFD2
:1001900001F801CBFAD505E014F8016B01F8016B09
:1001A0006D1EF9D59142D6D370470000704700000C
:1001B0000023002400250026103A28BF78C1FBD870
:1001C000520728BF30C148BF0B607047642900F058
:1001D0009D80732900F0E981002070471FB51FBD85
:1001E00010B510BD00F0E5F91146FFF7F7FF04F078
:1001F00033F900F003FA03B4FFF7F2FF03BC00F099
:100200000BFA00000948804709480047FEE7FEE76F
:10021000FEE7FEE7FEE7FEE7FEE7FEE7FEE7FEE7B6
:1002200004480549054A064B704700003D32000866
:10023000ED000008E8030020E8090020E8050020A0
:10024000E80500200FB41CB5074B06AA7B4469469D
:100250000090059800F07FF90020694600F08EF9C3
:100260001CBC5DF814FB00002D03000070B50446B3
:1002700085690068C10601D5302600E02026C00748
:1002800007D070BDD4E9012130469047206A401C58
:1002900020626D1EF6D570BD70B504468569007884
:1002A000C00707D170BDD4E9012120209047206A02
:1002B000401C20626D1EF6D570BD70B50C4605461B
:1002C000012A05D02878800600D5EA69002302E0DB
:1002D000012305E05B1C934202D2E05C0028F9D1C7
:1002E000A869E618C01AA861286A18442862284636
:1002F000FFF7BCFF04E0D5E9012114F8010B90479A
:10030000B442F8D32846FFF7C7FF70BD2DE9F0418E
:100310000646002410687529314616A510D0AFF3A3
:100320000080002802DA404213A507E031688A07FE
:1003300001D512A502E0490704D511A5012401E069
:10034000AFF3008000210A2206F1240709E0B0FB88
:10035000F2FCB0FBF2F302FB1C003030785418467C
:10036000491C0028F3D123462A463046BDE8F04117
:1003700000F092B8000000002D0000002B000000EB
:10038000200000002DE9F0474FF0000A894604469E
:10039000C0F820A02046E1688847002876D02528AC
:1003A00006D0D4E901219047206A401C2062F1E781
:1003B000E168204600258847C4F81CA006460027AF
:1003C000C4F818A02A2E09D0304604F03EF938B3FC
:1003D00004EB8708303EC8F8186019E059F8041B90
:1003E000204604EB87029161E1688847012F0646A9
:1003F00018D1E069002820DA25F020051DE0D8F8A2
:10040000180000EB800006EB40003038C8F81800F8
:100410002046E1688847064604F017F90028EED127
:10042000012F0AD02E2E08D12046E16888477F1C74
:100430000646022F45F02005C4DBA069002803DA38
:10044000404245F00105A061E80701D025F0100504
:10045000B6B1A6F14100192802D8203645F400654E
:100460004A463146204625604D46FFF7AFFE58B15B
:10047000012806D0ED1D25F0070000F1080989E7E5
:1004800004E005F1040985E730468AE7206ABDE803
:10049000F0877047704770472DE9F0470D46994641
:1004A0009246044600F124080168880604D5E069F4
:1004B00021F01001216000E00120A84201DD471B6E
:1004C00000E00027A1697A1902EB0900081AA0616F
:1004D0002078C00602D42046FFF7C8FE002608E0B8
:1004E000D4E901211AF806009047206A401C761CC6
:1004F00020624E45F4DB2078C0060AD52046FFF77F
:10050000B5FE06E0D4E9012130209047206A401C66
:100510002062381EA7F10107F4DC07E0D4E90121CD
:1005200018F805009047206A401C2062281EA5F19B
:100530000105F3DC2046FFF7AFFE2078000602D568
:100540000220BDE8F0870120FBE7000001694A1C9A
:1005500002610878704700B58FB0CDE90131002104
:10056000059105497944CDE9031011466846FFF726
:1005700009FF0FB000BD0000E5FFFFFF0A6802F8A9
:10058000010B0A60704710B5436913B1AFF30080E7
:1005900001E0FFF792FE012010BD127800F1240166
:1005A0000A7000224A700122EDE711684FF0FF3215
:1005B000E9E7754600F02CF8AE460500694653465B
:1005C00020F00700854618B020B5FFF729FEBDE8EA
:1005D00020404FF000064FF000074FF000084FF0AA
:1005E000000BAC46ACE8C009ACE8C009ACE8C009F7
:1005F000ACE8C00921F007018D46704710B50446EC
:10060000AFF300802046BDE81040FFF7F4BD0000C6
:10061000004870479802002001491820ABBEFEE751
:10062000260002007047000040F21C30C2F20000B9
:10063000D0E90312898BD38BC91A936909B2591A6D
:100640000129B8BF002191614FF00101B8BF02211B
:100650000170704740F21C3CC2F2000CDCE903124E
:100660009CF80430928B088C012BA2EB000207D17E
:1006700090B202EBD03000B2421000208CF804009F
:10068000886912B2801A0128B8BF002088614FF033
:100690000000B8BF03208CF80000704740F21C3007
:1006A000C2F20000007AC0F10500C0B2704700003D
:1006B00040F21C30C2F2000001210171017070474C
:1006C00040F21C30C2F200000078704740F21C304B
:1006D000C2F200000189042988BF7047C268013155
:1006E00053690181012193610170704740F21C320E
:1006F000C2F200024B69C2E90301002010701071C0
:1007000010818B6170470000FEE7000080B500F0AB
:100710008DFE000E18BF012080BD000080B500F0E6
:1007200085FEC0F3002080BD80B500F07FFEC0F3E1
:10073000004080BD80B500F079FE00F0010080BD72
:1007400040F2811140F23030C2F20001C2F20000EA
:100750000A780178013A8A42C4BF013101707047BA
:1007600040F23030C2F200000021017070470000FA
:100770002DE9F04F81B0826A02EB010EBEF1280F25
:10078000C0F828E0C0F2DD804CF6CD41AEF1280380
:10079000CCF6CC41A3FB011701264469D0E9072B15
:1007A000D0F824A006EB571745F2565C17F0030863
:1007B000C5F2555C1ED084FB0C5982FB0C578BFB99
:1007C0000C5609EBD975254407EBD774A71806EB2F
:1007D000D67202EB0B092CB23AB2B8F1010F0FFA44
:1007E00089FB0BD10AF1010A9E461E46782B47D29F
:1007F000A1E000BF782B43D29DE000BF009345F2FB
:1008000056535C43260C06EBD47424B25A43254459
:10081000140C04EBD27212B2D1190BFB03F2130CBD
:1008200003EBD27212B202EB09072CB20AB2B8F192
:10083000020F0FFA87FB05D1AEF1500E0AF1020A42
:100840001AE000BF45F256535C43260C06EBD47405
:100850005A432C44150C0BFB03F305EBD2721D0C11
:1008600005EBD3730A443B44AEF1780E24B212B2C6
:100870000FFA83FB0AF1030A009B7646782B5AD3C2
:1008800045F2565584FB0C6782FB0C618BFB0C63B5
:1008900007EBD776344401EBD171114403EBD372EB
:1008A00023B26B431E0C06EBD3731BB223440CB272
:1008B0006C43260C06EBD4745A4424B2214414B27F
:1008C0006C43260C06EBD47424B222441CB26C4355
:1008D000260C06EBD47424B223440CB26C43260CD1
:1008E00006EBD47424B2214414B26C43260C06EBFC
:1008F000D47424B222441CB26C43270C07EBD4748A
:1009000023440CB26C43270C07EBD474214414B27B
:100910006C43270C07EBD474AEF1A006A7180AB2FB
:10092000AEF1C8011CB20FFA87FB0AF1040A11F1FB
:10093000500FB646A6D3C0E90544C0E9072BC0E96D
:1009400009A601B0BDE8F08F70B540F2080CC2F204
:10095000000C9CF80020002A55D00CF18801C2F14F
:10096000000E002303222C241CE000BF0EEB020526
:10097000022D48D0A1F1580686421BD0012D42D04D
:10098000A1F12C0686421BD0002D3CD081421DD007
:1009900004320EEB0205032D03F1040301F1B00153
:1009A00008BF70BDA1F184058542DFD103FB04C0FF
:1009B000033A0AE043F0010000FB04C0023A04E0FD
:1009C00043F0020000FB04C0013A011D40F2841C08
:1009D000C2F2000C2C2302FB03C65A43D6E901E500
:1009E000D6E9034073695CF80220C1E90403C1E958
:1009F000025406F11803B56AC1E9002E0DCB8D62D1
:100A00001831766A4DC170BD2DE9F04784B040F6CB
:100A10000048C4F201088A46064640464FF4805119
:100A200000224FF0000900F073F9802040F28C356D
:100A300040EA4600C2F200058DF8090064240DF179
:100A4000090102AA28460123009400F001FF0DF1DC
:100A50000B010DF10A02284601238DF80B9000943A
:100A600000F0F6FE9DF80A7040464FF480510122D6
:100A700000F04EF940464FF48051002227EA0A0761
:100A800000F046F97E2000EA46008DF80D000DF1D9
:100A90000D0103AA28460123009400F0D9FE0DF1B0
:100AA0000F010DF10E02284601238DF80F700094FE
:100AB00000F0CEFE40464FF48051012200F028F9AC
:100AC00004B0BDE8F087000070470000B0B50446F0
:100AD00000F024F9054640F20000C2F20000007860
:100AE000611C18BF044400BF00F018F9401BA0426D
:100AF000FAD3B0BD2DE9F04F82B00E68002E00F0A1
:100B0000FD8041F20042C4F20102042340F2004E93
:100B1000904208BF03234FF6FF7CC4F2010E0093FE
:100B200000240123C1F2100C4FF0000A4FF000091D
:100B30004BE000BF41F20002C4F20102009F90426C
:100B400008BF022704F00C030F229A402BEA02028E
:100B500007FA03F34FEA9A051A4346F825204E6830
:100B600040F20C45F202DEF8082054BF22EA0802E7
:100B700042EA0802C4F20105CEF808202A68B3024E
:100B800054BF22EA080242EA08022A60B303DEF8F0
:100B9000042054BF22EA080242EA0802F303CEF816
:100BA0000420DEF800204FF0010354BF22EA0802BF
:100BB00042EA0802CEF800200E680AF1010A36FA6D
:100BC0000AF204F1040400F0998003FA0AFB16EA21
:100BD0000B08F1D04E68664512DC122E56D8DFE8BD
:100BE00006F0350B4D4955555555555555555555E7
:100BF00055555545510000BFD1F80C9046E000BF57
:100C00004FF6FF72C1F2210296420FDC0022C1F2C0
:100C1000110296421AD00022C1F21202964215D059
:100C20000022C1F22102964210D02FE00022C1F230
:100C3000220296420AD00022C1F23102964205D029
:100C40000022C1F23202964220D100BF8A684AB126
:100C5000012A14BFC0F814B0C0F810B04FF0080952
:100C600014E000BF4FF0040910E000BFCA6802F1B1
:100C700004090BE04FF0000908E000BFCA6802F168
:100C8000080903E0CA6802F10C0900BF02462646C3
:100C9000B8F5807F24BF0432203E17680F25B54089
:100CA00027EA050509FA06F635431560CA79D20622
:100CB0007FF582AF41F21803C4F202031A68AEF561
:100CC0007E7642F001021A601A6802F00102019277
:100CD000019A2AF0030256F802B040F60002C4F26C
:100CE0000102904208D040F60042C4F20102904254
:100CF0007FF420AF012725E7002723E702B0BDE8F6
:100D0000F08F00008068084018BF01207047000085
:100D1000002A08BF090401617047000040F2E43076
:100D2000C2F200000068704740F2000040F2E43177
:100D3000C2F20000C2F2000100780A6810440860A4
:100D40007047000080B542F20000C4F20200016862
:100D500041F010010160032000F07AF80F2000F04C
:100D600005F800F027F8002080BD000070B540F2C3
:100D70000006C2F2000640F2B0013278C2F2000171
:100D80004FF47A730968B3FBF2F20446B1FBF2F157
:100D9000084600F0C7FE0F2C4FF0010508D838B9FF
:100DA0004FF0FF3021460022002500F025F8746046
:100DB000284670BD82B041F21800C4F202000168FA
:100DC000022241F001010160016801F0010101917D
:100DD0000199416841F080514160406800F08050C5
:100DE000009000980420C4F20100016862F31A61C7
:100DF000016002B07047000010B54EF60C5CCEF2F8
:100E0000000CDCF80030C3F3022E8EF00704042C33
:100E100028BF0424BEF103034FF0FF3E0EFA04F492
:100E200038BF0023A14399400EFA03F39A431143BC
:100E300000F00F0200F160430901043A03F5644336
:100E40006244002848BF02F10C03197010BD000075
:100E50004EF60C51CEF200010A684FF6FF031A401D
:100E600060F30A2242F0806040F0FD700860704735
:100E7000002804BF012070472DE9F04381B042F201
:100E80000008C4F202080446D8F800000D4600F03D
:100E9000070081420CD9D8F8000020F00700284351
:100EA000C8F80000D8F8000000F00700A8426CD194
:100EB000206841F204098107C4F2020917D54107ED
:100EC00005D5D9F8001041F4E061C9F80010010718
:100ED00005D5D9F8001041F46051C9F80010D9F8CF
:100EE0000010A26821F0F0011143C9F80010C007FA
:100EF00042D1D8F8000000F0070085420CD2D8F8A3
:100F0000000020F007002843C8F80000D8F80000CF
:100F100000F00700A84238D12068410707D5D9F86A
:100F20000010E26821F4E0611143C9F800100007E5
:100F300008D5D9F80000216920F4605040EAC100CA
:100F4000C9F80000D9F8002002F00C00082841F28E
:100F50000020C0F27A004DD146F67E63C2F3834191
:100F6000C0F60003595CD20338D440F60010C0F23A
:100F70003D0048433EE000BF606859F8041C022869
:100F800008D0012826D1890306D4012001B0BDE88C
:100F9000F08300BF8901F8D5D9F8001021F00301D2
:100FA0000843C9F80000FFF7B9FE064641F288374A
:100FB000D9F80000616800F00C00B0EB810F98D008
:100FC000FFF7ACFE801BB842F2D9032001B0BDE8A8
:100FD000F08300BF8907D8D5DEE700BFD9F800202D
:100FE00046F67C63C2F34042C0F600039A5C484375
:100FF000B0FBF2F0D9F8001044F25862C1F30311CB
:10100000C0F60002515C40F2B00220FA01F140F259
:101010000400C2F200000068C2F200021160FFF793
:10102000A5FE002001B0BDE8F0830000002804BF49
:10103000012070472DE9F04182B00446007841F26A
:101040000006C007C4F202060CD0706800F00C0065
:10105000042840F081803068800303D56068002850
:1010600000F04681207880071BD5706810F00C0FC7
:1010700009D0706800F00C00082840F08780706884
:10108000C00300F183803068800703D52069012800
:1010900040F02E813068616920F0F80040EAC1001C
:1010A00030602078000713D4207840072CD4E569FD
:1010B000002D00F01881706800F00C00082840F046
:1010C000A780012D40F00481012002B0BDE8F0812D
:1010D000A069002800F084800020C4F24220012191
:1010E000C0F88014FFF71AFE054600BF706A80073B
:1010F00000F1B280FFF712FE401B0228F6D9032050
:1011000002B0BDE8F08100BFF0695FEAC00808D412
:10111000F06940F08050F061F06900F0805000907C
:10112000009847F20007C4F200073868C00549D4A8
:10113000386840F480703860FFF7F0FD054600BF66
:101140003868C0053ED4FFF7E9FD401B6428F7D995
:10115000032002B0BDE8F081706800F00C000828A0
:1011600003D17068C0033FF576AF6168306800292D
:1011700000F00C81B1F5A02F00F00081B1F5803FA7
:1011800040F01A8140F480301CE100BF2069002843
:1011900040F20000C4F2422000F08880012101608A
:1011A000FFF7BCFD054600BF306880073FF572AF12
:1011B000FFF7B4FD401B0228F6D9032002B0BDE8BA
:1011C000F08100BFE168306A002900F09D800529A8
:1011D00000F09280012940F0AF8040F00100B1E0C2
:1011E0000020C4F242200021C0F88014FFF796FDD1
:1011F000054600BF706A80077FF556AFFFF78EFD8A
:10120000401B0228F6D9032002B0BDE8F08100BFE0
:101210000027C4F2422700203866FFF77FFD022D29
:1012200005460DD13068800140F1DE80FFF776FD84
:10123000401B02284FF00300F4D902B0BDE8F08152
:10124000306880014FD5FFF769FD401B02284FF041
:101250000300F5D9F1E700BF40F2B000C2F2000090
:10126000006844F6D351C1F26201A0FB0101480AB3
:10127000019000BF00BF0198411E002801913FF47A
:1012800013AF00BF0198411E002801913FF40CAF3D
:1012900000BF0198411E002801913FF405AF00BF37
:1012A0000198411E00280191E4D1FDE60021016072
:1012B000FFF734FD054600BF306880077FF5F1AECB
:1012C000FFF72CFD401B02284FF00300F4D9B4E7D0
:1012D0007068216A00F480328A4209D1616A00F4A0
:1012E0007010884204D1002002B0BDE8F08100BF38
:1012F000012002B0BDE8F08140F004003062306AA5
:1013000040F001001EE000BF20F001003062306AB2
:1013100020F004003062FFF701FD054641F28837F6
:10132000306A800720D5FFF7F9FC401BB8424FF028
:101330000300F5D981E700BF20F001003062306A78
:1013400020F004003062FFF7E9FC054641F28837DF
:10135000306A800708D4FFF7E1FC401BB842F7D998
:10136000032002B0BDE8F081B8F1000F3FF59FAE59
:10137000F06920F08050F06199E600BF40F48020D1
:101380003060306840F480301CE000BF20F48030D2
:101390003060306820F480203060FFF7BFFC0546E5
:1013A000306880037FF55EAEFFF7B8FC401B642811
:1013B0004FF00300F4D940E720F48030306030680B
:1013C00020F480203060FFF7A9FC054630688003D8
:1013D0003FF548AEFFF7A2FC401B6428F6D9032076
:1013E00002B0BDE8F08100BF206AB0F5803F05D1B2
:1013F0007168A26821F40031114371607168626AFA
:1014000021F4741111430843706001203866FFF71E
:1014100085FC0446306880013FF565AFFFF77EFC30
:10142000001B02284FF00300F4D906E72DE9F04134
:1014300040F60008C4F2010840464FF40061FFF78F
:1014400061FC40F2F826C2F2000618B100253560B2
:1014500007E000BF3068002501303060022888BFF7
:10146000012540464FF48061FFF74CFC10B1002786
:10147000776007E0706800210130022888BF0121F1
:101480000F02706040464FF40041FFF73BFC18B17B
:101490000024B46008E000BFB068002101300228D9
:1014A00088BF01210C04B06008F580600821FFF7B7
:1014B00029FC38B10020F060204338432843BDE8C0
:1014C000F08100BFF06800210130022888BF0121AF
:1014D000F0600806204338432843BDE8F08100004F
:1014E00070B528B1416A29B100210161142106E0DB
:1014F000012070BD4168B1F5827F02D01C2100221D
:1015000042500026866290F8511029B980F8506048
:10151000054600F039F82846022180F8511090E87D
:101520002E0002F482720C6803F4044324F0400499
:101530000C601A4405F4006305691A4405F00203BF
:1015400045691A4405F001038569C4691A4405F424
:1015500000731A4404F03803046A1A4404F0800348
:10156000846A1A4304F400531A430A60042202EA0C
:1015700015424A60CA6922F40062CA6101214665C7
:1015800080F85110304670BD70B586B0006843F6E3
:101590000001C4F2000188424FF00001CDE90411BE
:1015A000CDE9021122D043F20001C4F201018842C8
:1015B0004ED141F21800C4F20200016840F6000466
:1015C00041F4805101600168402601F4805101918D
:1015D00001990168C4F2010441F00401016000684E
:1015E00000F0040001900198A0201FE041F21800D3
:1015F000C4F2020041684FF4804641F480414160EA
:10160000416801F4804101910199016841F00801AC
:101610000160006800F008000190019840F60000A9
:10162000C4F2010000F580644FF4204002900220D3
:101630000390032002AD059020462946FFF75AFA91
:101640000020CDE90300204629460296FFF752FA12
:1016500006B070BD2DE9F04182B01D4616460F461A
:101660000446FFF75BFB94F8511001290ED1804628
:10167000002F4FF0010018BF002E03D102B0BDE8CB
:10168000F08100BF94F85000012803D1022002B07D
:10169000BDE8F081012084F850000320002184F887
:1016A000510061652763A686E686A163A187E1876D
:1016B000A0682164B0F5004F2068616407D101681B
:1016C00021F040010160016841F48041016001683E
:1016D000490603D4016841F0400101606168731E4E
:1016E000E268B1FA81F1B3FA83F349095B09B2F513
:1016F000006F41EA030139D131B137F8021BC160F3
:101700002763E08E0138E086E08E002870D0681CE8
:101710000BD11AE0216B31F8022BC2602163E08EFD
:101720000138E086E08E002862D020688168890751
:10173000F0D4FFF7F3FAA0EB0800A842F2D338E0A8
:10174000FFF7ECFAE08E002852D020688168890704
:10175000F6D5216B31F8022BC2602163E08E01388F
:10176000E086E08E0028F0D142E000BF39B1397840
:101770000173206B01302063E08E0138E086E08E3B
:10178000B0B3681C0BD123E0216B09780173206B87
:1017900001302063E08E0138E086E08E40B320689F
:1017A00081688907F0D4FFF7B9FAA0EB0800A842D6
:1017B000F3D3012084F85100002084F85000032066
:1017C00002B0BDE8F08100BFFFF7A8FAE08E78B163
:1017D000206881688907F7D5216B09780173206B30
:1017E00001302063E08E0138E086E08E0028EFD1E2
:1017F0002046022101222B46CDF8008000F0CAFDD0
:1018000040B92046802100222B46CDF8008000F010
:10181000C1FD28B1606D40F020006065202060654A
:10182000A06838B9002001902068C16801918068E3
:1018300001900198012084F85100002084F85000A4
:10184000606D002818BF012002B0BDE8F0810000E3
:101850002DE9F04383B01E4615460F460446FFF7B8
:101860005DFA94F851108146012909D1002F4FF0FB
:10187000010018BF002D0FD103B0BDE8F08300BFF9
:101880006068B0F5827F0DD104294FF00200F3D1DA
:10189000A1680029EAD0EFE7002EEDD094F85000BF
:1018A000012803D1022003B0BDE8F083012084F8B1
:1018B000500094F85100002104281CBF052084F832
:1018C00051006165A563E687A6872763E6862068E1
:1018D000A686216461640168490603D4016841F069
:1018E000400101606168731EE268B1FA81F1B3FAE8
:1018F00083F3DDF8288049095B09B2F5006F41EAFE
:10190000030165D131B137F8021BC1602763E08E56
:101910000138E086012518F1010032D102E000BF54
:10192000FFF7FCF9E08E18B9E08F002800F0B880CE
:101930002068816889070CD5E18E51B1012D08D14D
:10194000216B002531F8022BC2602163E18E013941
:10195000E1868168C907E3D0E18F0029E0D0C06843
:10196000A16B012521F8020BA163E08F0138E0870C
:10197000D6E700BFFFF7D2F9A0EB0900404580F0A1
:10198000AF80E08E18B9E08F002800F089802068D1
:10199000816889070CD5E18E51B1012D08D1216BE9
:1019A000002531F8022BC2602163E18E0139E18606
:1019B0008168C907DED0E18F0029DBD0C068A16B48
:1019C000012521F8020BA163E08F0138E087D1E700
:1019D00039B139780173206B01302063E08E013812
:1019E000E086012518F1010032D101E0FFF796F9F8
:1019F000E08E10B9E08F002852D0206881688907F6
:101A00000ED5E18E61B1012D0AD1216B0025097837
:101A10000173216B206801312163E18E0139E18678
:101A20008168C907E2D0E18F0029DFD0C068A16BCF
:101A300001250870A06B0130A063E08F0138E087BA
:101A4000D4E700BFFFF76AF9A0EB0900404547D291
:101A5000E08E08B9E08F18B32068816889070ED539
:101A6000E18E61B1012D0AD1216B00250978017346
:101A7000216B206801312163E18E0139E1868168A3
:101A8000C907DFD0E18F0029DCD0C068A16B012538
:101A90000870A06B0130A063E08F0138E087D1E7C8
:101AA0002046022101224346CDF8009000F072FC4E
:101AB00040B92046802100224346CDF8009000F036
:101AC00069FCB8B1606D40F0200060652020606561
:101AD000002084F85000012003B0BDE8F08300BF6F
:101AE000012084F85100002084F85000032003B046
:101AF000BDE8F083A06838B9002002902068C16872
:101B00000291806802900298012084F85100002020
:101B100084F85000606D002818BF012003B0BDE8B4
:101B2000F0830000411E0020B0EB116F1CBF0120AC
:101B300070474EF21002CEF2000251604EF6235171
:101B4000CEF20001F0230B70072190601160704706
:101B5000FEE700002DE9F04184B040F60045C4F2F4
:101B60000105044628464FF4805100224FF000083A
:101B7000FFF7CEF840F28C361A20C2F200068DF83C
:101B80000D0064270DF10D0103AA304601230097D3
:101B9000FFF75EFE0DF10F010DF10E02304601233D
:101BA0008DF80F800097FFF753FE28464FF48051C1
:101BB0000122FFF7ADF842F29300208002AF0C2023
:101BC000214602222346009700F096F910B104B096
:101BD000BDE8F08120786178A278E37848405040F1
:101BE00021795840401A18BF0120400004B0BDE8D8
:101BF000F0810000F0B583B040F60044C4F2010467
:101C000020464FF480510122FFF782F820464FF41E
:101C100000610122FFF77CF820464FF4805100223A
:101C20000027FFF775F840F28C350220C2F200055C
:101C30008DF80B0064260DF10B010DF10A02284608
:101C400001230096FFF704FE0F208DF80B000DF125
:101C50000B010DF10A02284601230096FFF7F8FD5B
:101C600020464FF480510122FFF752F820464FF4EE
:101C700080510022FFF74CF854208DF80B000DF135
:101C80000B010DF10A02284601230096FFF7E0FD43
:101C90008D208DF80B000DF10B010DF10A02284685
:101CA00001230096FFF7D4FD20464FF48051012216
:101CB000FFF72EF820464FF480510022FFF728F856
:101CC00056208DF80B000DF10B010DF10A0228468C
:101CD00001230096FFF7BCFD3E208DF80B000DF1AF
:101CE0000B010DF10A02284601230096FFF7B0FD13
:101CF00020464FF480510122FFF70AF820464FF4A6
:101D000080510022FFF704F85A208DF80B000DF1E6
:101D10000B010DF10A02284601230096FFF798FDFA
:101D20001E208DF80B000DF10B010DF10A02284663
:101D300001230096FFF78CFD20464FF480510122CD
:101D4000FEF7E6FF20464FF480510022FEF7E0FF49
:101D500058208DF80B000DF10B010DF10A022846F9
:101D600001230096FFF774FD0DF10B010DF10A023E
:101D7000284601238DF80B700096FFF769FD204679
:101D80004FF480510122FEF7C3FF20464FF48051EB
:101D90000022FEF7BDFF2A208DF80B000DF10B018C
:101DA0000DF10A02284601230096FFF751FD40205D
:101DB0008DF80B000DF10B010DF10A0228460123ED
:101DC0000096FFF745FD20464FF480510122FEF7B3
:101DD0009FFF20464FF480510022FEF799FF2220FA
:101DE0008DF80B000DF10B010DF10A0228460123BD
:101DF0000096FFF72DFD3D208DF80B000DF10B0136
:101E00000DF10A02284601230096FFF721FD204626
:101E10004FF480510122FEF77BFF20464FF48051A2
:101E20000022FEF775FFA8208DF80B000DF10B01C5
:101E30000DF10A02284601230096FFF709FD0DF176
:101E40000B010DF10A02284601238DF80B70009654
:101E5000FFF7FEFC20464FF480510122FEF758FFA9
:101E60001420032101F088F903B0F0BD2DE9F04101
:101E700084B040F60048C4F201080C4605464046CE
:101E80004FF480510022FEF743FF40F28C371A20B6
:101E9000C2F200078DF80D0064260DF10D0103AAB2
:101EA000384601230096FFF7D3FC07208DF80F007A
:101EB0000DF10F010DF10E02384601230096FFF7D8
:101EC000C7FC40464FF480510122FEF721FF02AFCC
:101ED0000C202146012223462570009700F00CF8C3
:101EE00002991029014618BF0221002818BF0221BB
:101EF000084604B0BDE8F0812DE9F04F87B01746E1
:101F00000C2888460293049006D00E2808D1112090
:101F10000590122007E000BF31200590772002E0F5
:101F200001200590002040F60045C4F20105039011
:101F300000F1800428464FF4805100224FF0000940
:101F4000FEF7E6FE40F28C3A0420C2F2000A8DF859
:101F50001B0064260DF11B010DF11A0250460123EE
:101F60000096FFF775FC0DF11B010DF11A025046AA
:101F700001238DF81B400096FFF76AFC28464FF4BA
:101F800080510122FEF7C4FE04208021FEF73CFDB3
:101F90000A20802101F0F0F828464FF480510022F9
:101FA000FEF7B6FE02208DF81B000DF11B010DF1AE
:101FB0001A02504601230096FFF74AFC0DF11B015F
:101FC0000DF11A02504601238DF81B900096FFF781
:101FD0003FFC28464FF480510122FEF799FE77B36B
:101FE00040F28C39A8F1010AC2F200090DF11B0878
:101FF0000DF11A041AF801BF28464FF4805100224F
:102000006426FEF785FE12208DF81B0048464146E7
:10201000224601230096FFF71BFC642648464146F2
:10202000224601238DF81BB00096FFF711FC2846CD
:102030004FF480510122FEF76BFE013FDAD12846B2
:102040004FF480510022FEF763FE40F28C340220F0
:10205000C2F200048DF81B000DF11B010DF11A02F4
:10206000204601230096FFF7F3FB049F0DF11B01AF
:102070000DF11A02204601238DF81B700096FFF720
:10208000E7FB28464FF480510122FEF741FE0C2F5A
:1020900003D10D20802101F06FF84FF6300740F298
:1020A0008C3BCFF6FF774FF088084FF0640AC2F2FE
:1020B000000B0DF11B060DF11A0400BF28464FF46A
:1020C00080510022FEF724FE584631462246012365
:1020D0008DF81B80CDF800A0FFF7BAFB00208DF82B
:1020E0001B005846314622460123CDF800A0FFF7D9
:1020F000AFFB9DF81A9028464FF480510122FEF75D
:1021000007FE013780F0D880059810EA090FD5D076
:102110000D208021FEF778FC28464FF480510022E4
:102120000027FEF7F5FD40F28C348C20C2F200044B
:102130008DF81B0064260DF11B010DF11A022046DB
:1021400001230096FFF784FB0DF11B010DF11A022C
:10215000204601238DF81B700096FFF779FB9DF850
:102160001A4028464FF480510122FEF7D1FD14F0A9
:102170001B0F40F0A5800398049900EA09000C2980
:1021800000F0010040F09D80059028464FF48051FA
:1021900000220026FEF7BCFD40F28C399420C2F2EA
:1021A00000090DF11A0B8DF81B0064240DF11B01C1
:1021B00048465A46012300944FF0010AFFF748FBB6
:1021C0000DF11B010DF11A02484601238DF81B6029
:1021D0000094FFF73DFB9DF81A8028464FF480518C
:1021E0000122FEF795FD28464FF480510022FEF7AC
:1021F0008FFD98208DF81B000DF11B010DF11A02C7
:10220000484601230094FFF723FB0DF11B010DF15C
:102210001A02484601238DF81B600094FFF718FB53
:102220009DF81A6028464FF480510122FEF770FD98
:1022300016F0070040EAC8001099A0F1080008BF96
:102240004FEAC8000860B8F1010F98BFD046B8F156
:10225000100F28BF4FF0100802984FF0920A461E48
:1022600028464FF480510022FEF752FD0DF11B0766
:10227000484639465A4601238DF81BA00094FFF7C3
:10228000E7FA00208DF81B00484639465A460123DC
:102290000094FFF7DDFA9DF81A7028464FF480513C
:1022A0000122FEF735FDB8F1010806F8017FD7D10C
:1022B000059807B0BDE8F08F0D208021FEF7A4FB44
:1022C000022007B0BDE8F08FFEE7000070B584B0D3
:1022D00040F2A000C2F20000D0E900304FF6E075F5
:1022E00046F69F620024CDE90005C0F600025520A5
:1022F0001421029400F0F4FE40F29806C2F20006A7
:10230000D6E9003046F6B162CDE90005C0F600021C
:1023100055203C21029400F0E3FED6E9003046F659
:10232000BA62CDE90005C0F600025520642102948E
:1023300000F0D6FED6E9003046F6A962CDE90005E8
:10234000C0F6000255208C21029400F0C9FE04B0B2
:1023500070BD0000FEE700007047000010B582B0BD
:1023600004460DF103012620FFF780FD20B90DF191
:102370000300FFF7EFFB18B1002002B010BD00BF53
:102380009DF80700DDF8031020712160012002B0E4
:1023900010BD00002DE9F04381B0089C9846154619
:1023A0000E468146FEF7BAFC201A00EB0804FEF741
:1023B000B5FC40F2B001C2F200010968C1F3CB31B3
:1023C00061430091D9F800108A683240921BB2FA3A
:1023D00082F2520995423DD0074618F1010031D0F2
:1023E000FEF79CFCC01BA04238D200980099002840
:1023F000A1F101010091D9F80010896808BF0446D5
:1024000001EA0600801BB0FA80F040098542E7D15E
:1024100020E000BF88683040801BB0FA80F040099F
:10242000854217D088683040801BB0FA80F04009A0
:1024300085420FD088683040801BB0FA80F0400998
:10244000854207D088683040801BB0FA80F0400990
:102450008542DFD1002001B0BDE8F083D9E9000159
:102460004268B1F5827F22F0E00242600BD1D9F8D8
:102470000810B1F5004F02D0B1F5806F03D10168AB
:1024800021F040010160D9F82810B1F5005F07D1B3
:10249000016821F400510160016841F400510160BC
:1024A000012089F85100002089F85000032001B074
:1024B000BDE8F0832DE9F04F85B0814640F600007D
:1024C00015468B46C4F20100102100221C4600264E
:1024D000FEF71EFC0BEB050081B24846224600F0D9
:1024E000E9F8ABEB050081B24846224600F0E2F87D
:1024F00009EB050080B25946224600F0DBF8A9EB53
:10250000050080B25946224600F0D4F8002D66D06E
:10251000A6EB4502C5F1010A0123CDF8009000BFEA
:102520000FFA8AF0911CB0F1FF3FC4BF8A440A46FB
:102530000492C8BF013D28B206F1010803900FFACA
:1025400088F0029018B202300190824408EB090032
:1025500005EB0B018EB287B238463146224600F0B9
:10256000A9F8A9EB08001FFA80F94846314622462F
:1025700000F0A0F8ABEB050086B2384631462246A3
:1025800000F098F84846DDF800903146224600F009
:1025900091F805EB090008EB0B0187B28EB23846C3
:1025A0003146224600F086F8A9EB050085B22846A0
:1025B0003146224600F07EF8ABEB080086B2384682
:1025C0003146224600F076F828463146029E2246E1
:1025D00000F070F8DDE90352019BAE42A0DB40F64B
:1025E0000000C4F201001021012205B0BDE8F04F47
:1025F000FEF78EBB2DE9F04F81B0B3EB010C1C460A
:1026000048BFCCF1000C131A48BF5B429C4509D966
:1026100016460246A1420BD83046A14616460C4645
:1026200008E000BF264614460A460146A142F3D9F7
:10263000104689464FF0FF3B864238BF4FF0010BF2
:10264000A14534D3A9EB04011FFA81FA01EBDA3179
:1026500009B2801BDDF82880C1F34F0748BF404214
:102660009C4505B212D900BFB0B2A1B2424600F0FB
:1026700021F838B2471B38B20134002844BF5E4409
:1026800000EB0A07A0B24845EED910E0A0B2B1B203
:10269000424600F00FF838B2471B38B20134002828
:1026A00044BF5E4400EB0A07A0B24845EED901B032
:1026B000BDE8F08F10B582B014468209042A98BF95
:1026C000A92901D902B010BD02460B4600F0D0FB8B
:1026D00060BA40F60004C4F20104ADF806002046DA
:1026E00010210022FEF714FB204610210022FEF7E5
:1026F0000FFB04F5806001210122FEF709FB40F287
:102700003430C2F200000DF1060102224FF0FF3317
:10271000FEF7A0FF204610210122FEF7F9FA20461D
:1027200010210122FEF7F4FA02B010BD2DE9F04F9E
:1027300081B0054640F6000B0020002140F23F1218
:10274000A923C4F2010B4FF0000900F091FB584699
:1027500010210022FEF7DCFA40F234382F0A0BF584
:102760008066C2F200080DF1020A00BF002400BF1B
:102770005846102100228DF802708DF80350FEF7A4
:10278000C7FA304601210122FEF7C2FA40465146FF
:1027900002224FF0FF33FEF75DFF58461021012261
:1027A000FEF7B6FAA92C04F10104E1D3B9F59F7F35
:1027B00009F10109DAD9584610210122FEF7A8FAD9
:1027C00001B0BDE8F08F0000F0B585B01420FEF731
:1027D0007DF940F60004C4F2010404F58065284642
:1027E00002210022FEF794FA1420FEF76FF9284622
:1027F000022101220127FEF78BFA9620FEF766F9E7
:102800003A208DF80000204610210022FEF780FAC1
:10281000284601210022FEF77BFA40F23436C2F24C
:1028200000066946304601224FF0FF33FEF712FFE3
:10283000204610210122FEF76BFA55208DF800008A
:10284000204610210022FEF763FA284601210122CA
:10285000FEF75EFA6946304601224FF0FF33FEF77D
:10286000F9FE204610210122FEF752FAB2208DF81F
:102870000000204610210022FEF74AFA28460121D6
:102880000022FEF745FA6946304601224FF0FF3339
:10289000FEF7E0FE204610210122FEF739FA332030
:1028A000019040F60C40C3F2003000902046102109
:1028B0000022FEF72DFA284601210122FEF728FA10
:1028C0006946304605224FF0FF33FEF7C3FE20462F
:1028D00010210122FEF71CFA36208DF80000204658
:1028E00010210022FEF714FA284601210022FEF7EB
:1028F0000FFA6946304601224FF0FF33FEF7AAFE79
:10290000204610210122FEF703FAA0208DF80000D6
:10291000204610210022FEF7FBF928460121012262
:10292000FEF7F6F96946304601224FF0FF33FEF715
:1029300091FE204610210122FEF7EAF9B7208DF81A
:102940000000204610210022FEF7E2F9284601216E
:102950000022FEF7DDF96946304601224FF0FF33D1
:10296000FEF778FE204610210122FEF7D1F935202E
:102970008DF80000204610210022FEF7C9F92846F4
:1029800001210122FEF7C4F96946304601224FF0C9
:10299000FF33FEF75FFE204610210122FEF7B8F953
:1029A000BB208DF80000204610210022FEF7B0F970
:1029B000284601210022FEF7ABF969463046012284
:1029C0004FF0FF33FEF746FE204610210122FEF7AE
:1029D0009FF919208DF80000204610210022FEF7F3
:1029E00097F9284601210122FEF792F969463046FF
:1029F00001224FF0FF33FEF72DFE20461021012269
:102A0000FEF786F9C0208DF8000020461021002234
:102A1000FEF77EF9284601210022FEF779F9694682
:102A2000304601224FF0FF33FEF714FE20461021FE
:102A30000122FEF76DF92C208DF8000020461021B0
:102A40000022FEF765F9284601210122FEF760F910
:102A50006946304601224FF0FF33FEF7FBFD20466A
:102A600010210122FEF754F9C2208DF80000204603
:102A700010210022FEF74CF9284601210022FEF722
:102A800047F96946304601224FF0FF33FEF7E2FD79
:102A9000204610210122FEF73BF92046102100229A
:102AA0008DF80070FEF734F9284601210122FEF767
:102AB0002FF96946304601224FF0FF33FEF7CAFD79
:102AC000204610210122FEF723F9C3208DF80000D3
:102AD000204610210022FEF71BF928460121002282
:102AE000FEF716F96946304601224FF0FF33FEF734
:102AF000B1FD204610210122FEF70AF912208DF8BF
:102B00000000204610210022FEF702F9284601218C
:102B10000122FEF7FDF86946304601224FF0FF33EF
:102B2000FEF798FD204610210122FEF7F1F8C4209F
:102B30008DF80000204610210022FEF7E9F8284613
:102B400001210022FEF7E4F86946304601224FF0E9
:102B5000FF33FEF77FFD204610210122FEF7D8F853
:102B600020208DF80000204610210022FEF7D0F82A
:102B7000284601210122FEF7CBF8694630460122A2
:102B80004FF0FF33FEF766FD204610210122FEF7CD
:102B9000BFF8C6208DF80000204610210022FEF765
:102BA000B7F8284601210022FEF7B2F86946304600
:102BB00001224FF0FF33FEF74DFD20461021012288
:102BC000FEF7A6F80F208DF8000020461021002205
:102BD000FEF79EF8284601210122FEF799F8694682
:102BE000304601224FF0FF33FEF734FD204610211E
:102BF0000122FEF78DF8D0208DF80000204610212C
:102C00000022FEF785F8284601210022FEF780F811
:102C10006946304601224FF0FF33FEF71BFD204688
:102C200010210122FEF774F8A4208DF80000204640
:102C300010210022FEF76CF8284601210122FEF740
:102C400067F86946304601224FF0FF33FEF702FD78
:102C5000204610210122FEF75BF8A1208DF800002C
:102C6000204610210022FEF753F8284601210122B8
:102C7000FEF74EF86946304601224FF0FF33FEF76B
:102C8000E9FC204610210122FEF742F8E0208DF8F1
:102C90000000204610210022FEF73AF828460121C4
:102CA0000022FEF735F86946304601224FF0FF3327
:102CB000FEF7D0FC204610210122FEF729F842F24F
:102CC0001F30039041F64C00C0F60D30029042F6E2
:102CD0001330C5F23F40019040F2D040C1F20D10D8
:102CE0000090204610210022FEF712F8284601210C
:102CF0000122FEF70DF8694630460E224FF0FF33F1
:102D0000FEF7A8FC204610210122FEF701F8E12081
:102D10008DF80000204610210022FDF7F9FF28461B
:102D200001210022FDF7F4FF6946304601224FF0F1
:102D3000FF33FEF78FFC204610210122FDF7E8FF4C
:102D400042F22030039042F65170C1F61F7002909B
:102D500042F61340C4F23F40019040F2D040C1F22D
:102D60000C100090204610210022FDF7D1FF2846CC
:102D700001210122FDF7CCFF694630460E224FF0BB
:102D8000FF33FEF767FC204610210122FDF7C0FF4C
:102D900021208DF80000204610210022FDF7B8FF09
:102DA000284601210022FDF7B3FF69463046012283
:102DB0004FF0FF33FEF74EFC204610210122FDF7B5
:102DC000A7FF11208DF80000204610210022FDF7FA
:102DD0009FFF284601210022FDF79AFF69463046F1
:102DE00001224FF0FF33FEF735FC2046102101226F
:102DF000FDF78EFF7820FDF769FE13208DF80000A7
:102E0000204610210022FDF783FF284601210022E1
:102E1000FDF77EFF6946304601224FF0FF33FEF793
:102E200019FC204610210122FDF772FF29208DF8A0
:102E30000000204610210022FDF76AFF28460121EC
:102E40000022FDF765FF6946304601224FF0FF334F
:102E5000FEF700FC204610210122FDF759FF322029
:102E6000FDF734FE0020FFF761FC05B0F0BD000067
:102E70002DE9F04784B040F60004C4F20104164680
:102E80000D4607462046102100229946FDF740FFD7
:102E90002A208DF80D0020461021002205F1230A7A
:102EA000FDF736FF04F58065284601210022FDF775
:102EB0002FFF40F23438C2F200080DF10D014046F8
:102EC00001224FF0FF33FEF7C5FB204610210122FF
:102ED000FDF71EFF380A8DF80900300A8DF80B0047
:102EE0002046102100228DF80A708DF80C60FDF745
:102EF0000FFF284601210122FDF70AFF0DF109010C
:102F0000404604224FF0FF33FEF7A4FB2046102179
:102F1000012209F12306FDF7FBFE2B208DF80E00A0
:102F2000204610210022FDF7F3FE28460121002251
:102F3000FDF7EEFE0DF10E01404601224FF0FF338A
:102F4000FEF788FB204610210122FDF7E1FE4FEA43
:102F50001A208DF80500300A8DF807002046102150
:102F600000228DF806A08DF80860FDF7D1FE2846F6
:102F700001210122FDF7CCFE0DF10501404604229E
:102F80004FF0FF33FEF766FB204610210122FDF7CC
:102F9000BFFE2C208DF80F00204610210022FDF7E7
:102FA000B7FE284601210022FDF7B2FE0DF10F0108
:102FB000404601224FF0FF33FEF74CFB2046102124
:102FC0000122FDF7A5FE204610210122FDF7A0FEFB
:102FD00004B0BDE8F08700002DE9F04F85B040F661
:102FE0000004C4F20104904689460546204610219B
:102FF00000221E46FDF78CFEF7B2C6F30726E8193D
:1030000009EB06010138013982B28BB228464946E4
:10301000FFF72EFF002E029618BF002F08D1204682
:1030200010210122FDF774FE05B0BDE8F08F00BF4E
:10303000DDE90E06029A109BA8F1200151434FEAE8
:10304000162B40F2343600EB41004FEA13280021E2
:1030500004F58065C2F20006019004E0039902982D
:1030600001318142DBD001984FF0000930F811A006
:1030700003911EE0109810218DF8110020460022C7
:103080008DF81080FDF744FE284601210122FDF74E
:103090003FFE304604A902224FF0FF33FEF7DAFA72
:1030A000204610210122FDF733FE09F101094F45A9
:1030B000D4D00AFA09F00004DCD50F9810218DF85D
:1030C0001300204600228DF812B0FDF721FE28469D
:1030D00001210122FDF71CFE30460DF11201DAE755
:1030E0002DE9F04F85B007460E989246049040F6C1
:1030F00000000D46DDE90F6BC4F201001021002233
:103100001C46FDF705FE9AF800203AB3C4F30728E1
:103110005FFA84F90AF1010A0FE000BF0498A9B22E
:10312000CDE90006B8B2D2B22346CDF808B0FFF719
:1031300053FF4F441AF8012B82B1B8B24844B0F59E
:10314000A07FEBD34544A8B24044A92806D8D0B20A
:1031500020284FF00007E1D1ECE700BF40F6000067
:10316000C4F201001021012205B0BDE8F04FFDF7C7
:10317000CFBD0000704700002DE9F04784B040F655
:103180000048C4F201088A46064640464FF4805182
:1031900000224FF00009FDF7BBFD802040F28C3586
:1031A00040EA4600C2F200058DF8090064240DF1E2
:1031B000090102AA284601230094FEF749FB0DF1FC
:1031C0000B010DF10A02284601238DF80B900094A3
:1031D000FEF73EFB9DF80A7040464FF480510122F5
:1031E000FDF796FD40464FF48051002247EA0A075A
:1031F000FDF78EFD7E2000EA46008DF80D000DF1F2
:103200000D0103AA284601230094FEF721FB0DF1CE
:103210000F010DF10E02284601238DF80F70009466
:10322000FEF716FB40464FF480510122FDF770FD7A
:1032300004B0BDE8F0870000FDF776BD70470000E0
:1032400070B584B040F29805C2F20005D5E90030AF
:103250004FF6E07646F6CC620024CDE90006C0F6D3
:103260000002642028210294FFF73AFFD5E90030DC
:1032700046F6C262CDE90006C0F60002642046218F
:103280000294FFF72DFFD5E9003046F6D562CDE96F
:103290000006C0F60002642064210294FFF720FFBC
:1032A00004B070BD80B5FDF731FA002808BF80BDBD
:1032B0000020FFF73BFA40F20830C2F20000012183
:1032C0000170BDE88040FFF701B800002DE9F04330
:1032D00089B040F208350446C2F2000500260020FD
:1032E0004FF6E079C5E90266FFF720FA40F2A00741
:1032F000C2F20007D7E90030D4B1009060A25A2092
:1033000064210296CDF80490FFF7EAFE4FF4FA60CC
:10331000FDF7DCFBE878012842D1286901302861FB
:103320000020FFF703FA09B0BDE8F04300F01EBE2D
:10333000009059A25A2064210296CDF80490FFF71C
:10334000CFFE4FF4FA60FDF7C1FBE878012840F0AA
:103350008B8000204FF00008FFF7E8F9286904ACE3
:10336000421C50A12046FCF76DFFD7E900305A21DE
:10337000CDE9000946202246CDF80880FFF7B0FECF
:103380004FF4FA60FDF7A2FB0020C5F81080FFF7AC
:10339000CDF901202870FEF799FF09B0BDE8F08350
:1033A00040F2811040F23034C2F20000C2F2000458
:1033B000007821780138884244DDFDF7C1F900200A
:1033C0000026FFF7B3F900F003F90220217840F25C
:1033D000B402287040F2DC10C2F200022923C2F2CB
:1033E000000001FB032190F9000040F20C02C2F240
:1033F00000022C2391F8281000FB032040F2E01279
:1034000001EBC101C2F2000202EB8101EE70A86083
:10341000E960FDF76BF90020FFF788F900F034FB55
:1034200000F0B4FB00F0DCFEFFF70AFFA8680028FC
:10343000B3D0E9680029B0D009B0BDE8F04300F08E
:103440003BBF00BF00200024FFF770F9D7E9003030
:103450000DA2CDE900094B2064210294FFF740FE44
:103460004FF4FA60FDF732FBFDF77AF90020FFF721
:103470005DF90120287009B0BDE8F043FEF726BFD2
:10348000594F552057494E0043414D504149474EF1
:1034900020434C4541522100594F55204C4F534534
:1034A00000000000526561636865643A2564206D20
:1034B00061700000B0B584B040F20835C2F200057A
:1034C000A868C8B3E868B8B3FDF7FAF8022833D0A3
:1034D000FDF7F6F803282FD040F29424C2F200043E
:1034E000207800F09FFC204600F000FBFDF71CF95F
:1034F00000B3A87800BB207801210328A97021D04F
:1035000002281BD0012817D1FDF78EF8D5E902015A
:1035100000F0D2FEFDF7D4F802281FD1D5E9020150
:10352000B1F92010FDF724F9012004B0BDE8B04046
:10353000FFF7CCBE0020A87004B0B0BDFDF7B8F80E
:1035400005E000BFFDF7AAF8E0B1FDF7BFF8D5E947
:10355000020100F0B1FE4FF4C87001E04FF47A7040
:10356000FDF7B4FAFDF776F8D5E9020100F0A4FE04
:10357000FDF7A6F80328DFD1002004B0BDE8B04075
:10358000FFF7A4BE40F2A000C2F20000D0E9003074
:103590004FF6E0710025CDE9000109A21E20462169
:1035A0000295FFF79DFD40F22620FDF78FFA0020DF
:1035B000FFF7BCF804B0BDE8B04000F0ADB900BF03
:1035C0004F5554204F4620504F54494F4E00000055
:1035D00070B584B040F2A000C2F20000D0E9003023
:1035E0004FF6E07546F6B1620024CDE90005C0F65D
:1035F00000020A200A210294FFF772FD28204621CA
:10360000282278230095FEF7F5FF40F29806C2F2D3
:103610000006D6E900302EA2CDE900050A20782167
:103620000294FFF75DFD32203C215A223C23009595
:10363000FEF7E0FF28203C210A224FF6E073FEF758
:1036400039FF6E203C2196223C230095FEF7D2FFE5
:1036500064203C210A224FF6E073FEF72BFFA020E6
:103660004621A0226E230095FEF7C4FFA0203C2136
:103670000A224FF6E073FEF71DFFAA207821D2221E
:1036800078230095FEF7B6FFA02078210A224FF696
:10369000E073FEF70FFFDC204621DC226E2300954D
:1036A000FEF7A8FFDC2078210A224FF6E073FEF730
:1036B00001FFD6E9003046F6DC62CDE90005C0F630
:1036C0000002C82041210294FFF70AFD04B070BD3A
:1036D000466F726573740000B0B50446FDF724F8B8
:1036E00000284FD0032C59D0022C4DD0012C49D1A9
:1036F00000200025FFF71AF8FFF76AFF40F230318B
:1037000040F20834C2F20001C2F20004022009783B
:1037100040F2B402207040F2DC10C2F20002292311
:10372000C2F2000001FB032190F9000040F20C02FC
:10373000C2F200022C2391F8281000FB032040F273
:10374000E01201EBC101C2F2000202EB8101E5705F
:10375000A060E160FCF7CAFF0020FEF7E7FF00F081
:1037600093F900F013FA00F03BFDFFF769FDA06844
:1037700040B1E168002908BFB0BDBDE8B04000F02D
:103780009BBD00BFB0BD00BF0020FEF7CFFF00F023
:10379000DFF8BDE8B04000F0E9BB00BF0020FEF755
:1037A000C5FF40F2DC10C2F2000090F9000040F2C8
:1037B0000C01C2F200012C2200FB021040F2083181
:1037C000C2F2000104220A70BDE8B04000F034BC2F
:1037D00080B584B0032835D002281BD001281CBF37
:1037E00004B080BD40F29800C2F20000D0E9003081
:1037F0004FF6E07146F6CC624FF0000CCDE90001C7
:10380000C0F6000264202821CDF808C0FFF768FC4C
:1038100004B080BD40F29800C2F20000D0E9003050
:103820004FF6E07146F6C2624FF0000CCDE90001A0
:10383000C0F6000264204621CDF808C0FFF750FC16
:1038400004B080BD40F29800C2F20000D0E9003020
:103850004FF6E07146F6D5624FF0000CCDE900015D
:10386000C0F6000264206421CDF808C0FFF738FCE0
:1038700004B080BD80B584B0032835D002281BD0A9
:1038800001281CBF04B080BD40F29800C2F20000C5
:10389000D0E900304FF6E07146F6B1624FF0000C0F
:1038A000CDE90001C0F6000255203C21CDF808C04A
:1038B000FFF716FC04B080BD40F29800C2F2000091
:1038C000D0E900304FF6E07146F6BA624FF0000CD6
:1038D000CDE90001C0F6000255206421CDF808C0F2
:1038E000FFF7FEFB04B080BD40F29800C2F200007A
:1038F000D0E900304FF6E07146F6A9624FF0000CB7
:10390000CDE90001C0F6000255208C21CDF808C099
:10391000FFF7E6FB04B080BD80B50020FEF706FF90
:1039200000F0B2F800F032F900F05AFCFFF788FC22
:1039300040F20831C2F200018868002808BF80BD4B
:10394000C96819B1BDE8804000F0B6BC80BD000078
:1039500070B584B040F2A000C2F20000D0E900309F
:103960004FF6E07546F6BA620024CDE90005C0F6D0
:1039700000020A200A210294FFF7B2FB2820462108
:10398000282264230095FEF735FE40F29806C2F225
:103990000006D6E9003034A2CDE9000517206421E5
:1039A0000294FFF79DFB32203C215A223C230095D4
:1039B000FEF720FE28203C210A224FF6E073FEF796
:1039C00079FD6E203C2196223C230095FEF712FEE5
:1039D00064203C210A224FF6E073FEF76BFDAA201B
:1039E0003C21D2223C230095FEF704FEA0203C217E
:1039F0000A224FF6E073FEF75DFDDC203C210A222F
:103A00004FF6E073FEF756FDDC204621DC226E23E4
:103A10000095FEF7EFFDDC2078210A224FF6E073D7
:103A2000FEF748FDE62078214FF482727823009556
:103A3000FEF7E0FDD6E9003046F6DC62CDE9000590
:103A4000C0F600024FF4827071210294FFF748FB28
:103A5000D6E9003005A2CDE900050A208C210294A8
:103A6000FFF73EFB04B070BD596F75005468697371
:103A700020697320696E66696E697465206C6F6F6A
:103A800070206D6F6465000010B582B0FA2032219D
:103A90000A224FF6E0734FF6E074FEF70BFDFA20B2
:103AA0003C21FA225A230094FEF7A4FDFA205A2161
:103AB000E62278230094FEF79DFDFA205A214FF468
:103AC000877278230094FEF795FDFA204B21E622B9
:103AD0004B230094FEF78EFDFA204B214FF48772A2
:103AE0004B230094FEF786FD02B010BD10B50446CE
:103AF000FCF714FE68B16420FCF7E8FF2078FFF7BC
:103B000067FE207802289CBF01302070C0B200F010
:103B100089F9FCF70FFE002808BF10BD6420FCF7F0
:103B2000D5FF2078FFF754FE2078022824BF013803
:103B30002070C0B2BDE8104000F074B910B5044662
:103B4000FCF7ECFD68B16420FCF7C0FF2078FFF7BC
:103B500091FE207802289CBF01302070C0B200F096
:103B6000B3F9FCF7E7FD002808BF10BD6420FCF79F
:103B7000ADFF2078FFF77EFE2078022824BF0138B1
:103B80002070C0B2BDE8104000F09EB910B582B000
:103B90001E2032210A224FF6E0734FF6E074FEF742
:103BA00089FC1E203C211E225A230094FEF722FD90
:103BB0001E205A210A2278230094FEF71BFD1E20A6
:103BC0005A21322278230094FEF714FD1E204B2147
:103BD0000A224B230094FEF70DFD1E204B213222BA
:103BE0004B230094FEF706FD02B010BD2DE9F04313
:103BF00089B046F6E568426AC0F6000804AC05469E
:103C000020464146FCF71EFB40F2A806C2F2000621
:103C1000D6E900304FF6E0774FF00009CDE9000714
:103C2000282014212246CDF80890FFF759FAD5E94B
:103C3000053246F6E161C0F600012046FCF702FBC2
:103C4000D6E900308221CDE9000723202246CDF8B5
:103C50000890FFF745FAEA6920464146FCF7F2FA78
:103C6000D6E900308C21CDE9000723202246CDF88B
:103C70000890FFF735FAAA6A46F6E961C0F6000136
:103C80002046FCF7DFFAD6E900309621CDE900079F
:103C90001E202246CDF80890FFF722FA09B0BDE8B1
:103CA000F083000010B582B040F20834C2F2000484
:103CB000207808B102B010BD0DF10300FEF74EFBF5
:103CC0000028F7D00DF1030000F04AFB40F2DC11B0
:103CD000C2F2000100280870ECD4012020700020FE
:103CE000FEF724FDFEF7F2FA02B010BDF0B583B086
:103CF00040F20834C2F200046078012806D1FDF7D2
:103D00000DF86168884224BF00206070FCF70CFD4C
:103D100000286CD060784FF6E07578B340F2DC1084
:103D2000C2F2000090F9000040F20C01C2F2000162
:103D30002C2200FB021000266670FCF705FE002016
:103D4000FEF7F4FC40F2A000C2F20000D0E900301F
:103D500030A2CDE90005462046210296FFF7C0F9C2
:103D60004FF47A70FCF7B2FE0020FEF7DFFC012072
:103D7000207003B0BDE8F040FEF7A8BA002000268E
:103D8000FEF7D4FC40F2A007C2F20007D7E90030EA
:103D900018A2CDE9000528203C210296FFF7A0F9E2
:103DA000D7E9003017A2CDE9000528205521029659
:103DB000FFF796F94FF47A70FCF788FE0020FEF7C3
:103DC000B5FC40F2DC10C2F2000090F9000040F2B5
:103DD0000C01C2F200012C2200FB021000F02CF9B1
:103DE00001206070FCF79AFF00F6B830606003B005
:103DF000F0BD00BF505245535320414741494E202A
:103E0000544F0000205245534554205354415453BD
:103E100000000000524553455420434F4D504C453F
:103E20005445000080B584B0032835D002281BD04B
:103E300001281CBF04B080BD40F29800C2F200000F
:103E4000D0E900304FF4784146F6CC624FF0000CD8
:103E5000CDE90001C0F6000264202821CDF808C099
:103E6000FFF73EF904B080BD40F29800C2F20000B6
:103E7000D0E900304FF4784146F6C2624FF0000CB2
:103E8000CDE90001C0F6000264204621CDF808C04B
:103E9000FFF726F904B080BD40F29800C2F200009E
:103EA000D0E900304FF4784146F6D5624FF0000C6F
:103EB000CDE90001C0F6000264206421CDF808C0FD
:103EC000FFF70EF904B080BD80B584B0032835D06B
:103ED00002281BD001281CBF04B080BD40F298000E
:103EE000C2F20000D0E900304FF4784146F6B162EA
:103EF0004FF0000CCDE90001C0F6000255203C2136
:103F0000CDF808C0FFF7ECF804B080BD40F298008F
:103F1000C2F20000D0E900304FF4784146F6BA62B0
:103F20004FF0000CCDE90001C0F6000255206421DD
:103F3000CDF808C0FFF7D4F804B080BD40F2980077
:103F4000C2F20000D0E900304FF4784146F6A96291
:103F50004FF0000CCDE90001C0F6000255208C2185
:103F6000CDF808C0FFF7BCF804B080BDB0B588B08C
:103F70004FF44870FCF7AAFD40F20835C2F2000584
:103F8000286903AC421C2AA12046FCF75BF940F2E9
:103F9000A000C2F20000D0E900304FF6E0714FF00F
:103FA000000CCDE90001642050212246CDF808C064
:103FB000FFF796F80020FEF7B9FB0220287040F2C8
:103FC000DC10C2F2000090F9000040F20C01C2F2D5
:103FD00000012C2200FB021040F2DD12C2F20002AE
:103FE000296912780123B1FBF2F4EB7004FB121182
:103FF00040F2E01201EBC101C2F2000202EB8101CA
:10400000A860E960FCF772FB0020FEF78FFBFFF76A
:104010003BFDFFF7BBFD00F0E3F8FFF711F9A868DF
:1040200018B1E96809B100F047F908B0B0BD00BFA8
:104030004D41503A256400002DE9F04389B040F22B
:10404000A008C2F20008D8E900314FF6E077044634
:104050004FF00009CDE9001742A20A200A21CDF84D
:104060000890FFF73DF804AD41A128462246FCF731
:10407000E9F840F2A806C2F20006D6E90030232192
:10408000CDE900070A202A46CDF80890FFF728F866
:10409000D4E9053239A12846FCF7D4F8D6E9003036
:1040A0003721CDE900070A202A46CDF80890FFF70E
:1040B00017F8E26935A12846FCF7C4F8D6E90030C4
:1040C0004B21CDE900070A202A46CDF80890FFF7DA
:1040D00007F8226A31A12846FCF7B4F8D6E9003087
:1040E0005F21CDE900070A202A46CDF80890FEF7A7
:1040F000F7FFA26A2CA12846FCF7A4F8D6E9003005
:104100007321CDE900070A202A46CDF80890FEF772
:10411000E7FF626A28A12846FCF794F8D6E9003048
:104120008721CDE900070A202A46CDF80890FEF73E
:10413000D7FFD8E9003023A2CDE900077820462137
:10414000CDF80890FEF7CCFFD8E9003021A2CDE9E8
:10415000000791206421CDF80890FEF7C1FF09B057
:10416000BDE8F083434841524143544552000000AA
:104170004E616D653A202573000000004865616C52
:1041800074683A2025642F2564000000537472651A
:104190006E6774683A202564000000004465666517
:1041A0006E73653A20256400457870657269656EA6
:1041B00063653A20256400004C6576656C3A2025DD
:1041C0006400000050524553532053454C4543541E
:1041D00000000000544F2052455345540000000099
:1041E0002DE9F04383B04FF6E0770A2078214FF4B1
:1041F000A07278230097FEF7FDF940F2A805C2F2FD
:104200000005D5E9003046F69468C0F600080024A1
:10421000CDE900070A20822142460294FEF760FFA2
:10422000D5E9003046F68E69C0F60009CDE90007F1
:104230000A208C214A460294FEF752FFD5E900304D
:104240001BA2CDE900070A2014210294FEF748FFC3
:10425000D5E9003046F69966C0F60006CDE90007BC
:104260000A20962132460294FEF73AFFD5E9003043
:104270008221CDE90007FA2042460294FEF730FF82
:10428000D5E900308C21CDE90007FA204A46029496
:10429000FEF726FFD5E900309621CDE90007FA2088
:1042A00032460294FEF71CFF03B0BDE8F08300BF66
:1042B0004C4556454C3A20002DE9F04188B00D465A
:1042C000FFF794FCD5E9053246F6E16103ACC0F690
:1042D00000012046FBF7B6FF40F2A807C2F2000734
:1042E000D7E900304FF6E0764FF00008CDE9000640
:1042F0004FF4827082212246CDF80880FEF7F0FE4E
:10430000B5F91C2046F6E561C0F600012046FBF732
:1043100099FFD7E900308C21CDE900064FF4877072
:104320002246CDF80880FEF7DBFEB5F9202046F6E0
:10433000E961C0F600012046FBF784FFD7E90030B1
:104340009621CDE900064FF487702246CDF808800B
:10435000FEF7C6FE08B0BDE8F0810000FEE70000F1
:1043600040F26401C2F2000191F800C0BCF1000FFC
:1043700026D010B590F800E08A1C002105E000BFAF
:1043800001318C4502F1190214D012F8013C734539
:10439000F6D113784478A342F2D153788478A342BB
:1043A000EED19378C478A342EAD1BDE8104048B278
:1043B000704700BFFF21BDE8104048B2704700BF02
:1043C000FF2148B27047000070B584B040F2A005EC
:1043D000C2F20005D5E900304FF6E07646F69F625E
:1043E0000024CDE90006C0F60002552014210294F5
:1043F000FEF776FED5E900300EA2CDE900063220A8
:104400003C210294FEF76CFED5E900300DA2CDE907
:104410000006322064210294FEF762FED5E90030E6
:104420000BA2CDE900066E208C210294FEF758FE07
:1044300004B070BD20504C45415345205343414E7C
:10444000000000002020594F5552204341524400A3
:10445000524649440000000090B0FCF773FC002471
:104460000120CDE90B44CDE9094406900A904FF4B0
:10447000E0104FF4803102250F9006A8CDE9071413
:10448000CDE90D51FCF7D2FD20B1EFF3108072B6EB
:10449000FEE700BF0F20CDE901058020CDE9030430
:1044A00001A802210594FCF7E3FC28B1EFF310808A
:1044B00072B600BFFEE700BF002741F21800CDE949
:1044C0000877CDE90677C4F20200016840F60009DA
:1044D00041F0200101600168C4F2010901F02001EE
:1044E000019101990168002241F004010160016815
:1044F0004FF4467601F0040101910199016841F001
:104500000801016000684FF4467100F00800019056
:1045100001984846FCF7FCFB09F58065284641F206
:104520000101002241F20108FCF7F2FB069606AEFB
:104530004FF0010A022448463146CDE907A7099405
:10454000FCF7D8FA28463146CDE9068ACDE9087449
:10455000FCF7D0FA4FF40C40CDE906074846314647
:104560000897FCF7C7FA0820CDE906072846314628
:104570000897FCF7BFFA40F2343009F52051C2F237
:1045800000004FF400780A254FF4827680E8C200DC
:10459000C0E90377C0E90578C761C0E90877C0E9D9
:1045A0000A75FCF79DFF28B1EFF3108072B600BFCB
:1045B000FEE700BF40F28C30A9F55041C2F2000086
:1045C00080E8C200C0E90377C0E90578C0E9077751
:1045D000C0E90977C562FCF783FF28B1EFF31080CB
:1045E00072B600BFFEE700BF0020FEF79FF8FEF79F
:1045F000EBF8FDF7FFFAFFF7E7FE40F2083540F26F
:104600009524C2F20005C2F2000400BFFFF74AFB86
:10461000287802280CD001280DD12078FFF754FC0F
:104620002078FFF759F82046FFF788FA02E000BF2C
:10463000FEF740FF28780028E8D0FEF733FE287800
:104640000428E3D1FFF752FBE0E730380A2801D213
:1046500001207047002070470000000000000000AB
:104660000102030406070809000000000000000022
:10467000000000000000000000000000000000003A
:104680000000000000000000000000000000000C1E
:10469000000C000C000C000C000C000C000C000CBA
:1046A000000C000C0000000C000C000000000000DA
:1046B0000000001B001B001B001B001B0000000073
:1046C00000000000000000000000000000000000EA
:1046D0000000000000008019801980198019C07F37
:1046E000C07F80190033C07FC07F003300330033A8
:1046F00000330000000000000000001E003F807535
:1047000080650074003C001E0007800580658065A0
:104710008075003F001E00040004000000000070CF
:1047200000D840D8C0D880D900730006000C801B88
:10473000C036C066C046C00680030000000000000E
:104740000000001E003F003300330033001E000C49
:10475000C03CC066806380618063C03E801C0000F6
:10476000000000000000000C000C000C000C000C0D
:104770000000000000000000000000000000000039
:10478000000000000000000080000001000300069F
:1047900000060004000C000C000C000C000C000CC7
:1047A0000004000600060003000180000020001045
:1047B0000018000C000C00040006000600060006AD
:1047C000000600060004000C000C00180010002079
:1047D0000000000C002D003F001E00330000000010
:1047E00000000000000000000000000000000000C9
:1047F00000000000000000000000000C000C000C95
:10480000000CC0FFC0FF000C000C000C000C0000EE
:104810000000000000000000000000000000000098
:104820000000000000000000000000000000000088
:104830000000000C000C0004000400080000000050
:104840000000000000000000000000000000001E4A
:10485000001E00000000000000000000000000003A
:104860000000000000000000000000000000000048
:1048700000000000000000000000000C000C000020
:104880000000000000000003000300030006000613
:1048900000060006000C000C000C000C00180018AC
:1048A00000180000000000000000001E003F003360
:1048B000806180618061806D806D806180618061D8
:1048C0000033003F001E0000000000000000000652
:1048D000000E001E00360026000600060006000638
:1048E00000060006000600060006000000000000AA
:1048F0000000001E003F8073806180618001000322
:104900000006000C001800300060807F807F0000EF
:10491000000000000000001C003E00630063000374
:10492000000E000E00038001800180618073003F53
:10493000001E00000000000000000006000E000E37
:10494000001E001E0016003600360066807F807F45
:104950000006000600060000000000000000007FC6
:10496000007F006000600060006E007F8063800157
:10497000800180618073003F001E00000000000085
:104980000000001E003F803380610060006E007FE9
:1049900080738061806180618033003F001E000071
:1049A000000000000000807F807F80010003000382
:1049B00000060006000C000C000C0008001800188F
:1049C00000180000000000000000001E003F80638F
:1049D000806180610021001E003F806180618061F4
:1049E0008061003F001E0000000000000000001E6B
:1049F000003F00738061806180618073803F801D13
:104A0000800180610073003F001E00000000000074
:104A100000000000000000000000000C000C00007E
:104A200000000000000000000000000C000C00006E
:104A30000000000000000000000000000000000076
:104A4000000C000C00000000000000000000000C42
:104A5000000C00040004000800000000000000003A
:104A600080008003000E003800600038000E8003D4
:104A700080000000000000000000000000000000B6
:104A8000000000000000807F807F00000000807F29
:104A9000807F000000000000000000000000000017
:104AA000000000000000000000400070001C000733
:104AB00080010007001C00700040000000000000A2
:104AC000000000000000001F803FC071C060C000F7
:104AD000C00180030007000E000C000C0000000C59
:104AE000000C0000000000000000001E003F8031AC
:104AF00080718063806F806D806D806F80670060E3
:104B00000032003E001C0000000000000000000E0B
:104B1000000E001B001B001B001B80318031803FFA
:104B2000803F8031C060C060C060000000000000B5
:104B30000000007C007E0063006300630063007E71
:104B4000007E0063806180618063007F007E0000E2
:104B5000000000000000001E003F80318061006006
:104B60000060006000600060006080618031003F94
:104B7000001E0000000000000000007C007F0063B9
:104B80008063806180618061806180618061006399
:104B90000063007E007C0000000000000000807FB9
:104BA000807F0060006000600060007F007F006028
:104BB000006000600060807F807F000000000000D7
:104BC0000000807F807F0060006000600060007FE8
:104BD000007F006000600060006000600060000016
:104BE000000000000000001E003F80318061006076
:104BF0000060006080638063806180618031803FFD
:104C0000001E0000000000000000806180618061E3
:104C1000806180618061807F807F80618061806150
:104C20008061806180610000000000000000003FA2
:104C3000003F000C000C000C000C000C000C000CE1
:104C4000000C000C000C003F003F000000000000C2
:104C500000008001800180018001800180018001CD
:104C600080018001806180618073003F001E000030
:104C7000000000000000C060806100630066006604
:104C8000006C0078007C00660066006380618061D3
:104C9000C0600000000000000000006000600060D4
:104CA0000060006000600060006000600060006004
:104CB0000060807F807F0000000000000000C07165
:104CC000C071C07BC07AC06AC06AC06EC064C06078
:104CD000C060C060C060C060C06000000000000034
:104CE000000080718071807980798079806D806D1D
:104CF000806D806580678067806780638063000067
:104D0000000000000000001E003F00338061806151
:104D10008061806180618061806180610033003FDB
:104D2000001E0000000000000000007E007F806385
:104D30008061806180618063007F007E0060006030
:104D40000060006000600000000000000000001E25
:104D5000003F00338061806180618061806180619B
:104D6000806580670033803F401E00000000000027
:104D70000000007E007F8063806180618063007F2F
:104D8000007E00660063006380618061C060000097
:104D9000000000000000000E001F80318031003054
:104DA0000038001E00078003806180618031003F71
:104DB000001E0000000000000000C0FFC0FF000C4B
:104DC000000C000C000C000C000C000C000C000C83
:104DD000000C000C000C00000000000000008061CE
:104DE00080618061806180618061806180618061BB
:104DF000806180618073003F001E000000000000A1
:104E00000000C060C060C060803180318031001B14
:104E1000001B001B001B000E000E000E0004000013
:104E2000000000000000C0C0C0C0C0C0C0C0C0C002
:104E3000C0CC804C804C805E8052805280738061F8
:104E400080610000000000000000C0C08060806140
:104E50000033003B001E000C000C001E001F003B36
:104E600080718061C0C00000000000000000C0C070
:104E70008061806100330033001E001E000C000CB6
:104E8000000C000C000C000C000C000000000000E6
:104E90000000803F803F8001000300030006000CFB
:104EA000000C0018001800300060807F807F000038
:104EB00000000000000F000F000C000C000C000CA4
:104EC000000C000C000C000C000C000C000C000C82
:104ED000000C000C000F000F000000180018001854
:104EE000000C000C000C000C00060006000600067A
:104EF000000300030003000000000000001E001E6D
:104F00000006000600060006000600060006000671
:104F1000000600060006000600060006001E001E31
:104F20000000000C000C001E0012003300338061F2
:104F30008061000000000000000000000000000090
:104F40000000000000000000000000000000000061
:104F50000000000000000000000000000000000051
:104F600000000000E0FF0000000000380018000C06
:104F70000000000000000000000000000000000031
:104F80000000000000000000000000000000000021
:104F9000000000000000001F803F80618001801F32
:104FA000803F80618063807FC03800000000000087
:104FB00000000060006000600060006E007F807391
:104FC00080618061806180618073007F006E00007D
:104FD0000000000000000000000000000000001EB3
:104FE000003F807380610060006080618073003FDB
:104FF000001E000000000000000080018001800110
:105000008001801D803F807380618061806180614C
:105010008073803F801D0000000000000000000041
:10502000000000000000001E003F00738061807FD0
:10503000807F00608071003F001E000000000000C3
:105040000000C007C00F000C000C807F807F000CA8
:10505000000C000C000C000C000C000C000C0000FC
:10506000000000000000000000000000801D803FE4
:10507000807380618061806180618073803F801D6A
:1050800080018063007F003E0000006000600060DF
:105090000060006F807F80718061806180618061CD
:1050A0008061806180610000000000000000000657
:1050B000000600000000003E003E0006000600065C
:1050C00000060006000600060006000000000000C2
:1050D0000006000600000000003E003E000600063C
:1050E0000006000600060006000600060006004650
:1050F000007E003C00000060006000600060806195
:1051000000630066006C007C0076006300638061D1
:10511000C0600000000000000000003E003E0006ED
:10512000000600060006000600060006000600064F
:10513000000600060006000000000000000000005D
:1051400000000000000080DDC0FFC0CEC0CCC0CC9D
:10515000C0CCC0CCC0CCC0CCC0CC00000000000093
:1051600000000000000000000000006F807F8071E0
:105170008061806180618061806180618061000008
:105180000000000000000000000000000000001E01
:10519000003F807380618061806180618073003F27
:1051A000001E0000000000000000000000000000E1
:1051B000006E007F80738061806180618061807398
:1051C000007F006E00600060006000600000000072
:1051D00000000000801D803F8073806180618061DD
:1051E00080618073803F801D80018001800180018B
:1051F000000000000000000000000067803F003950
:10520000003000300030003000300030003000004E
:105210000000000000000000000000000000001E70
:10522000803F80610060007F803F80018061007F5F
:10523000001E000000000000000000000008001830
:105240000018007F007F00180018001800180018D0
:105250000018801F800F0000000000000000000008
:1052600000000000000080618061806180618061D9
:10527000806180618063807F803D000000000000CD
:1052800000000000000000000000C060803180319C
:105290008031001B001B001B000E000E00060000EA
:1052A000000000000000000000000000000080DDA1
:1052B00080DD80DD00550055005500770077002225
:1052C00000220000000000000000000000000000BC
:1052D0000000806100330033001E000C000C001E33
:1052E0000033003380610000000000000000000077
:1052F0000000000080618061803100330033001BBA
:10530000001B001B000E000E000E001C007C007035
:1053100000000000000000000000C07FC07F80018E
:1053200000030006000C00180030C07FC07F0000A2
:10533000000000008003800700060006000600064B
:105340000006000E001C001C000E000600060006F1
:10535000000600068007800300060006000600061F
:10536000000600060006000600060006000600060D
:105370000006000600060006000600060038003C95
:10538000000C000C000C000C000C000E00070007C5
:10539000000E000C000C000C000C000C003C00384F
:1053A0000000000000000000000000000000803845
:1053B000807F0047000000000000000000000000A7
:1053C00000000000000000000000000000000000DD
:1053D00000000000000000000000000000000000CD
:1053E00000000000000000000000000000000000BD
:1053F0000000000000000000E003E003E003E00321
:10540000E003E003E003E003C003C003C001C00108
:10541000C001C001C001000000000000E003E00383
:10542000E003000000000000000000003C1E3C1EE5
:105430003C1E3C1E3C1E3C1E3C1E000000000000AA
:10544000000000000000000000000000000000005C
:10545000000000000000000000000000000000004C
:10546000CE01CE03DE039E039C039C07FF3FFF7F1C
:105470003807380F780F780F780EFFFFFFFFF01E08
:10548000F01CE01CE03CE03DE039000000000000C2
:1054900000000000FC03FE0FEE1FE01EE01EE01EF9
:1054A000E01EE01FE00FE007F003FC01FE01FE013B
:1054B000FE01FE01FE01FE01FE3DFC3FF00FE0019A
:1054C000E001000000000000033E07F78FE78EE7D1
:1054D0009EE3BCE3B8E7F8E7F0F7E03FC001FF0365
:1054E000FF07F307F30FF31EF33CF338F3787FF075
:1054F0003FE000000000000000000000E007F80F9F
:10550000780F781F781F781F780FF00FE00F801F3B
:10551000C37FC3FBE7F3F7F1F7F0FFF07FF03EF84E
:105520007F7CFF3FEF1F0000000000000000000034
:10553000E003E003E003E003E003C003C001000078
:10554000000000000000000000000000000000005B
:10555000000000000000000000000000000000004B
:10556000000000003F007C00F001E001C003C00724
:1055700080078007800F000F000F000F000F000F43
:10558000000F800F80078007C007C003E001F00113
:105590007C003F000F000000007E001FC007C0031A
:1055A000E001F001F000F000F800780078007800E9
:1055B000780078007800F800F000F000F001E001D9
:1055C000C003C007001F007E00780000E003C00396
:1055D000C001CE39FF3F7F3F20037003F807780FEB
:1055E0003C1F380600000000000000000000000022
:1055F00000000000000000000000000000000000AB
:10560000000000000000000000000000C001C00118
:10561000C001C001C001C001C001FFFFFFFFC00108
:10562000C001C001C001C001C001000000000000B5
:10563000000000000000000000000000000000006A
:10564000000000000000000000000000000000005A
:10565000000000000000E003E003E003E003E001DD
:10566000E001E001C0018003000000000000000034
:105670000000000000000000000000000000FE3FED
:10568000FE3F0000000000000000000000000000DD
:10569000000000000000000000000000000000000A
:1056A00000000000000000000000000000000000FA
:1056B0000000000000000000000000000000E00307
:1056C000E003E003E0030000000000000000000031
:1056D0000F000F001E001E003C003C007800780008
:1056E000F000F000E001E001C003C0038007800784
:1056F000000F000F001E001E003C003C00780078E8
:1057000000F00000F007F80F7C1F3E3E1E3C1F7C9F
:105710001F7C0F780F780F780F780F780F780F783D
:105720001F7C1F7C1E3C3E3E7C1FF80FF0070000D4
:105730000000000000000000F000F007F03FF03F24
:10574000F001F001F001F001F001F001F001F001D1
:10575000F001F001F001F001F001F001F001FF3F74
:10576000FF3F00000000000000000000E00FF83FD5
:105770007C3C3C003E003E003E003C003C007C0087
:10578000F800F001E003C0078007000F001E003E94
:10579000003CFE3FFE3F0000000000000000000053
:1057A000F00FF81F7C1C3E003E003E003C003C0019
:1057B000F800F00FF80F7C003E001E001E001E00D7
:1057C0001E003E007C1CF81FE01F000000000000CF
:1057D000000000007800F800F800F801F803F8076E
:1057E000F807780F781E781E783C78787878FFFF75
:1057F000FFFF7800780078007800780078000000DB
:105800000000000000000000FC1FFC1FFC1F001E29
:10581000001E001E001E001EE01FF81FFC007C0082
:105820003E003E001E003E003E003C007C1CF81F77
:10583000E01F00000000000000000000FC01FE0767
:105840008E0F001F001E003E003C003CF83DFC3F58
:105850003E7F1F7E0F3C0F3C0F3C0F3C0F3E1F1E38
:105860003E1FFC0FF00300000000000000000000DD
:10587000FF3FFF3FFF3F0F001E001E003C003800AF
:105880007800F000F000E001E001C003C0038007F1
:10589000800F800F000F001F001F0000000000009D
:1058A00000000000F807FC0F3E1F1E1E1E3E1E3E9D
:1058B0001E1E3C1FF80FF007F80FFC1E3E3E1F3C5B
:1058C0001F7C0F7C0F7C1F3C3E3FFC1FF00700003D
:1058D0000000000000000000F007F80F7C1E3E3CB6
:1058E0001E3C1F7C1F7C1F7C1F7C1F3C3F3EFF1FFC
:1058F000EF071F001E001E003E003C00F838F03F7E
:10590000E01F000000000000000000000000000098
:105910000000000000000000E003E003E003E003FB
:105920000000000000000000000000000000E00394
:10593000E003E003E00300000000000000000000BE
:10594000000000000000000000000000E003E00391
:10595000E003E00300000000000000000000000081
:105960000000E003E003E003E003E001E001E00108
:10597000C0038003000000000000000000000000E1
:1059800003000F003F00FC00F003C00F003F00FECB
:10599000003FC00FF003FC003F000F0003000000B9
:1059A00000000000000000000000000000000000F7
:1059B000000000000000000000000000FFFFFFFFEB
:1059C000000000000000FFFFFFFF000000000000DB
:1059D00000000000000000000000000000000000C7
:1059E000000000000000000000E000F8007E801FC2
:1059F000E007F8017E001F007E00F801E007801F2D
:105A0000007E00F800E00000000000000000000040
:105A1000F01FFC3F3E381F381F381E001E003C00A0
:105A20007800F000E001C003C003C007C007000019
:105A300000000000C007C007C00700000000000011
:105A400000000000F803FE0F1E1F0F3E7F3CFF7892
:105A5000EF79C773C7F38FF38FF38FF39FF39FF340
:105A6000FF73FF7BF779003C1C1FFC0FF80300005D
:105A70000000000000000000000000000000E00343
:105A8000E003F007F007F007780F780F7C0E3C1E5C
:105A90003C1E3E3CFE3FFF3F1F780F780FF007F0A3
:105AA00007F00000000000000000000000000000FF
:105AB0000000F83FFC3F3E3C1E3C1E3C1E3C3E3C72
:105AC0007C3CF03FF83F7E3C1F3C1F3C0F3C0F3CB2
:105AD0001F3CFE3FF83F00000000000000000000F7
