:020000040800F2
:1000000010090020FD010008651F0008E91700081D
:10001000611F0008B90500087936000800000000DB
:100020000000000000000000000000004D2D00084E
:10003000AD07000800000000691F0008112E00082D
:10004000170200081702000817020008170200082C
:10005000170200081702000817020008170200081C
:10006000170200081702000817020008170200080C
:1000700017020008170200081702000817020008FC
:1000800017020008170200081702000817020008EC
:1000900017020008170200081702000817020008DC
:1000A00017020008170200081702000817020008CC
:1000B00017020008170200081702000817020008BC
:1000C00017020008170200081702000817020008AC
:1000D000170200081702000817020008170200089C
:1000E00017020008170200081702000800F002F8C3
:1000F00000F075F814A696E8000CB244B344DA4553
:1001000001D100F06CF8BAE80F000FA696E83000B5
:10011000A5EB040504EB0607AAEB0704A7F101070A
:100120004FEA15154FEA3414A4F10104AC4201D38F
:1001300000F055F813F0010F18BFFB1A43F001034C
:1001400000F001F8DBE71847386000005860000055
:100150000A444FF0000C10F8013B13F0070408BFED
:1001600010F8014B1D1108BF10F8015B641E05D08B
:1001700010F8016B641E01F8016BF9D113F0080F40
:100180001EBF10F8014BAD1C0C1B09D16D1E58BFD2
:1001900001F801CBFAD505E014F8016B01F8016B09
:1001A0006D1EF9D59142D6D370470000704700000C
:1001B0000023002400250026103A28BF78C1FBD870
:1001C000520728BF30C148BF0B607047642900F058
:1001D0007180002070471FB51FBD10B510BD00F025
:1001E000A6F91146FFF7F7FF03F090FA00F0C4F903
:1001F00003B4FFF7F2FF03BC00F0CCF909488047D5
:1002000009480047FEE7FEE7FEE7FEE7FEE7FEE7F8
:10021000FEE7FEE7FEE7FEE704480549054A064B10
:1002200070470000152E0008ED00000810030020A4
:100230001009002010050020100500200FB41CB587
:10024000074B06AA7B4469460090059800F057F9D1
:100250000020694600F066F91CBC5DF814FB000044
:10026000DD02000070B5044685690068C10601D54D
:10027000302600E02026C00707D070BDD4E9012158
:1002800030469047206A401C20626D1EF6D570BD36
:1002900070B5044685690078C00707D170BDD4E900
:1002A000012120209047206A401C20626D1EF6D557
:1002B00070BD00002DE9F041064600241068752944
:1002C000314616A510D0AFF30080002802DA404274
:1002D00013A507E031688A0701D512A502E0490796
:1002E00004D511A5012401E0AFF3008000210A220A
:1002F00006F1240709E0B0FBF2FCB0FBF2F302FBCD
:100300001C00303078541846491C0028F3D123468D
:100310002A463046BDE8F04100F092B800000000E7
:100320002D0000002B000000200000002DE9F04708
:100330004FF0000A89460446C0F820A02046E16834
:100340008847002876D0252806D0D4E90121904797
:10035000206A401C2062F1E7E168204600258847BA
:10036000C4F81CA006460027C4F818A02A2E09D0FD
:10037000304603F0B4FA38B304EB8708303EC8F8CF
:10038000186019E059F8041B204604EB87029161BC
:10039000E1688847012F064618D1E069002820DA75
:1003A00025F020051DE0D8F8180000EB800006EBD2
:1003B00040003038C8F818002046E16888470646F3
:1003C00003F08DFA0028EED1012F0AD02E2E08D18D
:1003D0002046E16888477F1C0646022F45F020052D
:1003E000C4DBA069002803DA404245F00105A061A2
:1003F000E80701D025F01005B6B1A6F14100192893
:1004000002D8203645F400654A463146204625602C
:100410004D46FFF7DBFE58B1012806D0ED1D25F053
:10042000070000F1080989E704E005F1040985E700
:1004300030468AE7206ABDE8F0877047704770470A
:100440002DE9F0470D4699469246044600F12408EE
:100450000168880604D5E06921F01001216000E000
:100460000120A84201DD471B00E00027A1697A199D
:1004700002EB0900081AA0612078C00602D42046C9
:10048000FFF7F0FE002608E0D4E901211AF8060083
:100490009047206A401C761C20624E45F4DB207891
:1004A000C0060AD52046FFF7DDFE06E0D4E90121AB
:1004B00030209047206A401C2062381EA7F10107B7
:1004C000F4DC07E0D4E9012118F805009047206A20
:1004D000401C2062281EA5F10105F3DC2046FFF731
:1004E000D7FE2078000602D50220BDE8F087012063
:1004F000FBE7000001694A1C02610878704700B5FB
:100500008FB0CDE901310021059105497944CDE94C
:10051000031011466846FFF709FF0FB000BD000049
:10052000E5FFFFFF0A6802F8010B0A607047754695
:1005300000F02CF8AE4605006946534620F007004F
:10054000854618B020B5FFF767FEBDE820404FF0A4
:1005500000064FF000074FF000084FF0000BAC46CC
:10056000ACE8C009ACE8C009ACE8C009ACE8C00917
:1005700021F007018D46704710B50446AFF30080A7
:100580002046BDE81040FFF733BE0000004870472A
:10059000D801002001491820ABBEFEE7260002006A
:1005A0007047000040F24422C2F20002C2E9010199
:1005B0000020107070470000FEE7000080B540F694
:1005C0000000C4F201004FF4806100F041FAB0FA7B
:1005D00080F0400980BD000080B540F60000C4F204
:1005E00001004FF4004100F033FAB0FA80F0400906
:1005F00080BD000080B540F60000C4F201004FF459
:10060000006100F025FAB0FA80F0400980BD0000DA
:1006100070B584B040F23824C2F20004207808B1EA
:1006200004B070BD40F20431C2F20001262001F096
:1006300069FA0028F4D140F20430C2F2000001F05F
:10064000D5F80028ECD140F20430C2F2000000F0EE
:10065000AFF840F22A11C2F2000100280870DFD47E
:10066000012020700020002401F04CFE40F2100018
:10067000C2F20000D0E900304FF6E07546F23312C6
:10068000CDE90005C0F6000255201421029402F0C5
:1006900013FB40F20806C2F20006D6E9003046F22B
:1006A0004512CDE90005C0F6000255203C21029418
:1006B00002F002FBD6E9003046F24E12CDE9000509
:1006C000C0F6000255206421029402F0F5FAD6E942
:1006D000003046F23D12CDE90005C0F6000255207B
:1006E0008C21029402F0E8FA04B070BD2DE9F047C5
:1006F00084B040F60048C4F201088A4606464046E7
:100700004FF4805100224FF0000900F0A7F980203B
:1007100040F2AC2540EA4600C2F200058DF809001F
:1007200064240DF1090102AA28460123009400F077
:10073000DBFE0DF10B010DF10A02284601238DF8B5
:100740000B90009400F0D0FE9DF80A7040464FF4E4
:100750008051012200F082F940464FF4805100227E
:1007600027EA0A0700F07AF97E2000EA46008DF8B1
:100770000D000DF10D0103AA28460123009400F09D
:10078000B3FE0DF10F010DF10E02284601238DF885
:100790000F70009400F0A8FE40464FF480510122F3
:1007A00000F05CF904B0BDE8F0870000704700007D
:1007B00040F22B1CC2F2000C02789CF800309342ED
:1007C00011D19CF8013041788B420CD19CF8021079
:1007D0008378994207D19CF80310C378994202BFED
:1007E000002040B270479CF81910914211D19CF83A
:1007F0001A10427891420CD19CF81B1082789142D9
:1008000007D19CF81C10C078814202BF012040B281
:100810007047FF2040B27047B0B5044600F024F99D
:10082000054640F20000C2F200000078611C18BFCB
:10083000044400BF00F018F9401BA042FAD3B0BD39
:100840002DE9F04F82B00E68002E00F0FD8041F2DD
:100850000042C4F20102042340F2004E904208BF5D
:1008600003234FF6FF7CC4F2010E00930024012302
:10087000C1F2100C4FF0000A4FF000094BE000BF2E
:1008800041F20002C4F20102009F904208BF022719
:1008900004F00C030F229A402BEA020207FA03F33A
:1008A0004FEA9A051A4346F825204E6840F20C4557
:1008B000F202DEF8082054BF22EA080242EA0802E7
:1008C000C4F20105CEF808202A68B30254BF22EA18
:1008D000080242EA08022A60B303DEF8042054BF8B
:1008E00022EA080242EA0802F303CEF80420DEF806
:1008F00000204FF0010354BF22EA080242EA080236
:10090000CEF800200E680AF1010A36FA0AF204F164
:10091000040400F0998003FA0AFB16EA0B08F1D0F0
:100920004E68664512DC122E56D8DFE806F0350B0D
:100930004D4955555555555555555555555555458B
:10094000510000BFD1F80C9046E000BF4FF6FF7297
:10095000C1F2210296420FDC0022C1F2110296423E
:100960001AD00022C1F21202964215D00022C1F222
:100970002102964210D02FE00022C1F222029642BC
:100980000AD00022C1F23102964205D00022C1F203
:100990003202964220D100BF8A684AB1012A14BFB0
:1009A000C0F814B0C0F810B04FF0080914E000BF50
:1009B0004FF0040910E000BFCA6802F104090BE01F
:1009C0004FF0000908E000BFCA6802F1080903E01F
:1009D000CA6802F10C0900BF02462646B8F5807FBE
:1009E00024BF0432203E17680F25B54027EA0505CD
:1009F00009FA06F635431560CA79D2067FF582AF4B
:100A000041F21803C4F202031A68AEF57E7642F092
:100A100001021A601A6802F001020192019A2AF09A
:100A2000030256F802B040F60002C4F201029042FE
:100A300008D040F60042C4F2010290427FF420AF99
:100A4000012725E7002723E702B0BDE8F08F00006B
:100A50008068084018BF012070470000002A08BFC6
:100A6000090401617047000040F20830C2F2000042
:100A70000068704740F2000040F20831C2F2000006
:100A8000C2F2000100780A68104408607047000054
:100A900080B542F20000C4F20200016841F010018A
:100AA0000160032000F07AF80F2000F005F800F054
:100AB00027F8002080BD000070B540F20006C2F2A9
:100AC000000640F220013278C2F200014FF47A733E
:100AD0000968B3FBF2F20446B1FBF2F1084600F0FC
:100AE0006DFE0F2C4FF0010508D838B94FF0FF30DC
:100AF00021460022002500F025F87460284670BDCC
:100B000082B041F21800C4F202000168022241F0F2
:100B100001010160016801F0010101910199416841
:100B200041F080514160406800F080500090009892
:100B30000420C4F20100016862F31A61016002B08E
:100B40007047000010B54EF60C5CCEF2000CDCF8DD
:100B50000030C3F3022E8EF00704042C28BF0424B7
:100B6000BEF103034FF0FF3E0EFA04F438BF00233A
:100B7000A14399400EFA03F39A43114300F00F0288
:100B800000F160430901043A03F56443624400281C
:100B900048BF02F10C03197010BD00004EF60C5155
:100BA000CEF200010A684FF6FF031A4060F30A22F2
:100BB00042F0806040F0FD7008607047002804BF7C
:100BC000012070472DE9F04381B042F20008C4F2E1
:100BD00002080446D8F800000D4600F007008142E4
:100BE0000CD9D8F8000020F007002843C8F800000E
:100BF000D8F8000000F00700A8426CD1206841F24C
:100C000004098107C4F2020917D5410705D5D9F8AF
:100C1000001041F4E061C9F80010010705D5D9F8CA
:100C2000001041F46051C9F80010D9F80010A26812
:100C300021F0F0011143C9F80010C00742D1D8F8E3
:100C4000000000F0070085420CD2D8F8000020F028
:100C500007002843C8F80000D8F8000000F007009B
:100C6000A84238D12068410707D5D9F80010E268BA
:100C700021F4E0611143C9F80010000708D5D9F844
:100C80000000216920F4605040EAC100C9F800006A
:100C9000D9F8002002F00C00082841F20020C0F230
:100CA0007A004DD146F21213C2F38341C0F600031D
:100CB000595CD20338D440F60010C0F23D004843DE
:100CC0003EE000BF606859F8041C022808D00128E3
:100CD00026D1890306D4012001B0BDE8F08300BF0E
:100CE0008901F8D5D9F8001021F003010843C9F8AB
:100CF0000000FFF7B9FE064641F28837D9F8000038
:100D0000616800F00C00B0EB810F98D0FFF7ACFEEB
:100D1000801BB842F2D9032001B0BDE8F08300BFC8
:100D20008907D8D5DEE700BFD9F8002046F21013B6
:100D3000C2F34042C0F600039A5C4843B0FBF2F0B5
:100D4000D9F8001043F6EC02C1F30311C0F600021B
:100D5000515C40F2200220FA01F140F20400C2F29C
:100D600000000068C2F200021160FFF7A5FE00203B
:100D700001B0BDE8F0830000002804BF01207047E7
:100D80002DE9F04182B00446007841F20006C00728
:100D9000C4F202060CD0706800F00C00042840F089
:100DA00081803068800303D56068002800F04681A8
:100DB000207880071BD5706810F00C0F09D0706880
:100DC00000F00C00082840F087807068C00300F134
:100DD00083803068800703D52069012840F02E8188
:100DE0003068616920F0F80040EAC1003060207886
:100DF000000713D4207840072CD4E569002D00F0BB
:100E00001881706800F00C00082840F0A780012DC0
:100E100040F00481012002B0BDE8F081A069002803
:100E200000F084800020C4F242200121C0F8801428
:100E3000FFF71AFE054600BF706A800700F1B28016
:100E4000FFF712FE401B0228F6D9032002B0BDE8CE
:100E5000F08100BFF0695FEAC00808D4F06940F093
:100E60008050F061F06900F080500090009847F2E7
:100E70000007C4F200073868C00549D4386840F458
:100E800080703860FFF7F0FD054600BF3868C00588
:100E90003ED4FFF7E9FD401B6428F7D9032002B0D8
:100EA000BDE8F081706800F00C00082803D170687C
:100EB000C0033FF576AF61683068002900F00C810F
:100EC000B1F5A02F00F00081B1F5803F40F01A810C
:100ED00040F480301CE100BF2069002840F200008F
:100EE000C4F2422000F0888001210160FFF7BCFDC0
:100EF000054600BF306880073FF572AFFFF7B4FDCD
:100F0000401B0228F6D9032002B0BDE8F08100BFE3
:100F1000E168306A002900F09D80052900F0928088
:100F2000012940F0AF8040F00100B1E00020C4F2A0
:100F300042200021C0F88014FFF796FD054600BF4F
:100F4000706A80077FF556AFFFF78EFD401B0228C1
:100F5000F6D9032002B0BDE8F08100BF0027C4F23B
:100F6000422700203866FFF77FFD022D05460DD190
:100F70003068800140F1DE80FFF776FD401B0228DB
:100F80004FF00300F4D902B0BDE8F0813068800171
:100F90004FD5FFF769FD401B02284FF00300F5D93C
:100FA000F1E700BF40F22000C2F20000006844F602
:100FB000D351C1F26201A0FB0101480A019000BFB8
:100FC00000BF0198411E002801913FF413AF00BFFC
:100FD0000198411E002801913FF40CAF00BF019819
:100FE000411E002801913FF405AF00BF0198411E4A
:100FF00000280191E4D1FDE600210160FFF734FDF6
:10100000054600BF306880077FF5F1AEFFF72CFD85
:10101000401B02284FF00300F4D9B4E77068216A3E
:1010200000F480328A4209D1616A00F4701088426B
:1010300004D1002002B0BDE8F08100BF012002B061
:10104000BDE8F08140F004003062306A40F00100F9
:101050001EE000BF20F001003062306A20F0040082
:101060003062FFF701FD054641F28837306A80079C
:1010700020D5FFF7F9FC401BB8424FF00300F5D92B
:1010800081E700BF20F001003062306A20F00400E8
:101090003062FFF7E9FC054641F28837306A800785
:1010A00008D4FFF7E1FC401BB842F7D9032002B097
:1010B000BDE8F081B8F1000F3FF59FAEF06920F078
:1010C0008050F06199E600BF40F4802030603068C5
:1010D00040F480301CE000BF20F480303060306885
:1010E00020F480203060FFF7BFFC054630688003A5
:1010F0007FF55EAEFFF7B8FC401B64284FF003009D
:10110000F4D940E720F480303060306820F480204B
:101110003060FFF7A9FC0546306880033FF548AE14
:10112000FFF7A2FC401B6428F6D9032002B0BDE8FB
:10113000F08100BF206AB0F5803F05D17168A268D8
:1011400021F40031114371607168626A21F47411F5
:1011500011430843706001203866FFF785FC0446A0
:10116000306880013FF565AFFFF77EFC001B022869
:101170004FF00300F4D906E770B528B1416A29B1F0
:1011800000210161142106E0012070BD4168B1F524
:10119000827F02D01C21002242500026866290F8F5
:1011A000511029B980F85060054600F039F82846FA
:1011B000022180F8511090E82E0002F482720C682F
:1011C00003F4044324F040040C601A4405F4006363
:1011D00005691A4405F0020345691A4405F0010344
:1011E0008569C4691A4405F400731A4404F038038D
:1011F000046A1A4404F08003846A1A4304F4005316
:101200001A430A60042202EA15424A60CA6922F4BB
:101210000062CA610121466580F85110304670BDF8
:1012200070B586B0006843F60001C4F20001884240
:101230004FF00001CDE90411CDE9021122D043F2B3
:101240000001C4F2010188424ED141F21800C4F2FB
:101250000200016840F6000441F480510160016819
:10126000402601F48051019101990168C4F2010402
:1012700041F004010160006800F004000190019851
:10128000A0201FE041F21800C4F2020041684FF4B0
:10129000804641F480414160416801F48041019100
:1012A0000199016841F008010160006800F0080040
:1012B0000190019840F60000C4F2010000F580643E
:1012C0004FF42040029002200390032002AD0590CD
:1012D00020462946FFF7B4FA0020CDE90300204656
:1012E00029460296FFF7ACFA06B070BD2DE9F04131
:1012F00082B01D4616460F460446FFF7B5FB94F82C
:10130000511001290ED18046002F4FF0010018BF67
:10131000002E03D102B0BDE8F08100BF94F8500068
:10132000012803D1022002B0BDE8F081012084F839
:1013300050000320002184F8510061652763A686D0
:10134000E686A163A187E187A0682164B0F5004F1C
:101350002068616407D1016821F0400101600168E3
:1013600041F4804101600168490603D4016841F0FD
:10137000400101606168731EE268B1FA81F1B3FA5D
:1013800083F349095B09B2F5006F41EA030139D1E2
:1013900031B137F8021BC1602763E08E0138E08667
:1013A000E08E002870D0681C0BD11AE0216B31F858
:1013B000022BC2602163E08E0138E086E08E0028B7
:1013C00062D0206881688907F0D4FFF74DFBA0EB5D
:1013D0000800A842F2D338E0FFF746FBE08E002871
:1013E00052D0206881688907F6D5216B31F8022B2D
:1013F000C2602163E08E0138E086E08E0028F0D1E3
:1014000042E000BF39B139780173206B01302063AD
:10141000E08E0138E086E08EB0B3681C0BD123E08B
:10142000216B09780173206B01302063E08E013855
:10143000E086E08E40B3206881688907F0D4FFF72A
:1014400013FBA0EB0800A842F3D3012084F851005D
:10145000002084F85000032002B0BDE8F08100BFF6
:10146000FFF702FBE08E78B1206881688907F7D525
:10147000216B09780173206B01302063E08E013805
:10148000E086E08E0028EFD12046022101222B4683
:10149000CDF8008000F06AFD40B92046802100228E
:1014A0002B46CDF8008000F061FD28B1606D40F062
:1014B0002000606520206065A06838B90020019098
:1014C0002068C1680191806801900198012084F82A
:1014D0005100002084F85000606D002818BF0120E2
:1014E00002B0BDE8F08100002DE9F04383B01E4654
:1014F00015460F460446FFF7B7FA94F85110814697
:10150000012909D1002F4FF0010018BF002D0FD184
:1015100003B0BDE8F08300BF6068B0F5827F0DD1F5
:1015200004294FF00200F3D1A1680029EAD0EFE7C7
:10153000002EEDD094F85000012803D1022003B012
:10154000BDE8F083012084F8500094F85100002198
:1015500004281CBF052084F851006165A563E68757
:10156000A6872763E6862068A686216461640168F1
:10157000490603D4016841F0400101606168731EAF
:10158000E268B1FA81F1B3FA83F3DDF82880490902
:101590005B09B2F5006F41EA030165D131B137F85B
:1015A000021BC1602763E08E0138E086012518F137
:1015B000010032D102E000BFFFF756FAE08E18B901
:1015C000E08F002800F0B8802068816889070CD57A
:1015D000E18E51B1012D08D1216B002531F8022B8C
:1015E000C2602163E18E0139E1868168C907E3D0D9
:1015F000E18F0029E0D0C068A16B012521F8020B22
:10160000A163E08F0138E087D6E700BFFFF72CFA2F
:10161000A0EB0900404580F0AF80E08E18B9E08F64
:10162000002800F089802068816889070CD5E18E48
:1016300051B1012D08D1216B002531F8022BC26078
:101640002163E18E0139E1868168C907DED0E18F2F
:101650000029DBD0C068A16B012521F8020BA16332
:10166000E08F0138E087D1E739B139780173206B19
:1016700001302063E08E0138E086012518F1010079
:1016800032D101E0FFF7F0F9E08E10B9E08F0028C9
:1016900052D02068816889070ED5E18E61B1012D95
:1016A0000AD1216B002509780173216B2068013173
:1016B0002163E18E0139E1868168C907E2D0E18FBB
:1016C0000029DFD0C068A16B01250870A06B013034
:1016D000A063E08F0138E087D4E700BFFFF7C4F9CB
:1016E000A0EB0900404547D2E08E08B9E08F18B35F
:1016F0002068816889070ED5E18E61B1012D0AD17C
:10170000216B002509780173216B20680131216369
:10171000E18E0139E1868168C907DFD0E18F0029B8
:10172000DCD0C068A16B01250870A06B0130A063FC
:10173000E08F0138E087D1E72046022101224346AD
:10174000CDF8009000F012FC40B920468021002224
:101750004346CDF8009000F009FCB8B1606D40F050
:101760002000606520206065002084F85000012082
:1017700003B0BDE8F08300BF012084F851000020D1
:1017800084F85000032003B0BDE8F083A06838B9A6
:10179000002002902068C16802918068029002983F
:1017A000012084F85100002084F85000606D00286A
:1017B00018BF012003B0BDE8F0830000411E0020E7
:1017C000B0EB116F1CBF012070474EF21002CEF239
:1017D000000251604EF62351CEF20001F0230B704F
:1017E0000721906011607047FEE700002DE9F0418D
:1017F00084B040F60045C4F20105044628464FF483
:10180000805100224FF00008FFF728F940F2AC2683
:101810001A20C2F200068DF80D0064270DF10D01AB
:1018200003AA304601230097FFF75EFE0DF10F017A
:101830000DF10E02304601238DF80F800097FFF75F
:1018400053FE28464FF480510122FFF707F942F278
:101850009300208002AF0C202146022223460097ED
:1018600000F096F910B104B0BDE8F08120786178FD
:10187000A278E3784840504021795840401A18BF78
:101880000120400004B0BDE8F0810000F0B583B055
:1018900040F60044C4F2010420464FF48051012276
:1018A000FFF7DCF820464FF400610122FFF7D6F87D
:1018B00020464FF4805100220027FFF7CFF840F276
:1018C000AC250220C2F200058DF80B0064260DF154
:1018D0000B010DF10A02284601230096FFF704FED2
:1018E0000F208DF80B000DF10B010DF10A022846B7
:1018F00001230096FFF7F8FD20464FF480510122A6
:10190000FFF7ACF820464FF480510022FFF7A6F80D
:1019100054208DF80B000DF10B010DF10A02284641
:1019200001230096FFF7E0FD8D208DF80B000DF1EF
:101930000B010DF10A02284601230096FFF7D4FDA2
:1019400020464FF480510122FFF788F820464FF4DB
:1019500080510022FFF782F856208DF80B000DF120
:101960000B010DF10A02284601230096FFF7BCFD8A
:101970003E208DF80B000DF10B010DF10A022846F7
:1019800001230096FFF7B0FD20464FF4805101225D
:10199000FFF764F820464FF480510022FFF75EF80D
:1019A0005A208DF80B000DF10B010DF10A022846AB
:1019B00001230096FFF798FD1E208DF80B000DF116
:1019C0000B010DF10A02284601230096FFF78CFD5A
:1019D00020464FF480510122FFF740F820464FF493
:1019E00080510022FFF73AF858208DF80B000DF1D6
:1019F0000B010DF10A02284601230096FFF774FD42
:101A00000DF10B010DF10A02284601238DF80B7030
:101A10000096FFF769FD20464FF480510122FFF741
:101A20001DF820464FF480510022FFF717F82A20B6
:101A30008DF80B000DF10B010DF10A022846012370
:101A40000096FFF751FD40208DF80B000DF10B01C2
:101A50000DF10A02284601230096FFF745FD2046B6
:101A60004FF480510122FEF7F9FF20464FF48051D8
:101A70000022FEF7F3FF22208DF80B000DF10B0181
:101A80000DF10A02284601230096FFF72DFD3D20A7
:101A90008DF80B000DF10B010DF10A022846012310
:101AA0000096FFF721FD20464FF480510122FEF7FA
:101AB000D5FF20464FF480510022FEF7CFFFA8202B
:101AC0008DF80B000DF10B010DF10A0228460123E0
:101AD0000096FFF709FD0DF10B010DF10A022846F2
:101AE00001238DF80B700096FFF7FEFC20464FF4A3
:101AF00080510122FEF7B2FF1420032101F028F9E2
:101B000003B0F0BD2DE9F04184B040F60048C4F2C6
:101B100001080C46054640464FF480510022FEF76E
:101B20009DFF40F2AC271A20C2F200078DF80D008D
:101B300064260DF10D0103AA384601230096FFF734
:101B4000D3FC07208DF80F000DF10F010DF10E02EF
:101B5000384601230096FFF7C7FC40464FF48051FA
:101B60000122FEF77BFF02AF0C2021460122234613
:101B70002570009700F00CF802991029014618BF53
:101B80000221002818BF0221084604B0BDE8F081F8
:101B90002DE9F04F87B017460C2888460293049031
:101BA00006D00E2808D111200590122007E000BFB2
:101BB00031200590772002E001200590002040F6BA
:101BC0000045C4F20105039000F1800428464FF45B
:101BD000805100224FF00009FEF740FF40F2AC2A8E
:101BE0000420C2F2000A8DF81B0064260DF11B01CF
:101BF0000DF11A02504601230096FFF775FC0DF116
:101C00001B010DF11A02504601238DF81B4000966E
:101C1000FFF76AFC28464FF480510122FEF71EFFB1
:101C200004208021FEF762FD0A20802101F090F857
:101C300028464FF480510022FEF710FF02208DF855
:101C40001B000DF11B010DF11A02504601230096F5
:101C5000FFF74AFC0DF11B010DF11A02504601235A
:101C60008DF81B900096FFF73FFC28464FF48051FB
:101C70000122FEF7F3FE77B340F2AC29A8F1010A86
:101C8000C2F200090DF11B080DF11A041AF801BF88
:101C900028464FF4805100226426FEF7DFFE122012
:101CA0008DF81B0048464146224601230096FFF767
:101CB0001BFC642648464146224601238DF81BB092
:101CC0000096FFF711FC28464FF480510122FEF7E1
:101CD000C5FE013FDAD128464FF480510022FEF7BD
:101CE000BDFE40F2AC240220C2F200048DF81B00BD
:101CF0000DF11B010DF11A02204601230096FFF79A
:101D0000F3FB049F0DF11B010DF11A022046012384
:101D10008DF81B700096FFF7E7FB28464FF48051C3
:101D20000122FEF79BFE0C2F03D10D20802101F034
:101D30000FF84FF6300740F2AC2BCFF6FF774FF09D
:101D400088084FF0640AC2F2000B0DF11B060DF17A
:101D50001A0400BF28464FF480510022FEF77EFE91
:101D600058463146224601238DF81B80CDF800A04D
:101D7000FFF7BAFB00208DF81B005846314622467B
:101D80000123CDF800A0FFF7AFFB9DF81A9028467D
:101D90004FF480510122FEF761FE013780F0D880B8
:101DA000059810EA090FD5D00D208021FEF79EFC82
:101DB00028464FF4805100220027FEF74FFE40F2E4
:101DC000AC248C20C2F200048DF81B0064260DF1B7
:101DD0001B010DF11A02204601230096FFF784FB38
:101DE0000DF11B010DF11A02204601238DF81B7025
:101DF0000096FFF779FB9DF81A4028464FF4805172
:101E00000122FEF72BFE14F01B0F40F0A580039873
:101E1000049900EA09000C2900F0010040F09D80BF
:101E2000059028464FF4805100220026FEF716FE4A
:101E300040F2AC299420C2F200090DF11A0B8DF882
:101E40001B0064240DF11B0148465A4601230094EF
:101E50004FF0010AFFF748FB0DF11B010DF11A02CB
:101E6000484601238DF81B600094FFF73DFB9DF869
:101E70001A8028464FF480510122FEF7EFFD2846D4
:101E80004FF480510022FEF7E9FD98208DF81B00E9
:101E90000DF11B010DF11A02484601230094FFF7D2
:101EA00023FB0DF11B010DF11A02484601238DF8A9
:101EB0001B600094FFF718FB9DF81A6028464FF44A
:101EC00080510122FEF7CAFD16F0070040EAC80063
:101ED0001099A0F1080008BF4FEAC8000860B8F1E7
:101EE000010F98BFD046B8F1100F28BF4FF010086F
:101EF00002984FF0920A461E28464FF48051002265
:101F0000FEF7ACFD0DF11B07484639465A46012342
:101F10008DF81BA00094FFF7E7FA00208DF81B0056
:101F2000484639465A4601230094FFF7DDFA9DF8EA
:101F30001A7028464FF480510122FEF78FFDB8F148
:101F4000010806F8017FD7D1059807B0BDE8F08FEA
:101F50000D208021FEF7CAFB022007B0BDE8F08FFC
:101F6000FEE70000FEE70000704700002DE9F043A7
:101F700081B0089C984615460E468146FEF774FDD2
:101F8000201A00EB0804FEF76FFD40F22001C2F2B8
:101F900000010968C1F3CB3161430091D9F8001009
:101FA0008A683240921BB2FA82F2520995423DD0C1
:101FB000074618F1010031D0FEF756FDC01BA042C4
:101FC00038D2009800990028A1F101010091D9F8B8
:101FD0000010896808BF044601EA0600801BB0FAB9
:101FE00080F040098542E7D120E000BF886830409A
:101FF000801BB0FA80F04009854217D088683040D5
:10200000801BB0FA80F0400985420FD088683040CC
:10201000801BB0FA80F04009854207D088683040C4
:10202000801BB0FA80F040098542DFD1002001B06A
:10203000BDE8F083D9E900014268B1F5827F22F062
:10204000E00242600BD1D9F80810B1F5004F02D080
:10205000B1F5806F03D1016821F040010160D9F82A
:102060002810B1F5005F07D1016821F4005101602B
:10207000016841F400510160012089F851000020FD
:1020800089F85000032001B0BDE8F0832DE9F04F3E
:1020900085B0814640F6000015468B46C4F201002B
:1020A000102100221C460026FEF7D8FC0BEB050091
:1020B00081B24846224600F0E9F8ABEB050081B258
:1020C0004846224600F0E2F809EB050080B2594686
:1020D000224600F0DBF8A9EB050080B25946224603
:1020E00000F0D4F8002D66D0A6EB4502C5F1010A38
:1020F0000123CDF8009000BF0FFA8AF0911CB0F1D7
:10210000FF3FC4BF8A440A460492C8BF013D28B2BB
:1021100006F1010803900FFA88F0029018B202301D
:102120000190824408EB090005EB0B018EB287B2E7
:1021300038463146224600F0A9F8A9EB08001FFAFC
:1021400080F948463146224600F0A0F8ABEB050086
:1021500086B238463146224600F098F84846DDF807
:1021600000903146224600F091F805EB090008EB9B
:102170000B0187B28EB238463146224600F086F80F
:10218000A9EB050085B228463146224600F07EF8CC
:10219000ABEB080086B238463146224600F076F8AE
:1021A00028463146029E224600F070F8DDE90352CF
:1021B000019BAE42A0DB40F60000C4F201001021FA
:1021C000012205B0BDE8F04FFEF748BC2DE9F04F05
:1021D00081B0B3EB010C1C4648BFCCF1000C131AC4
:1021E00048BF5B429C4509D916460246A1420BD81E
:1021F0003046A14616460C4608E000BF2646144667
:102200000A460146A142F3D9104689464FF0FF3BEA
:10221000864238BF4FF0010BA14534D3A9EB04012E
:102220001FFA81FA01EBDA3109B2801BDDF8288050
:10223000C1F34F0748BF40429C4505B212D900BFC9
:10224000B0B2A1B2424600F021F838B2471B38B212
:102250000134002844BF5E4400EB0A07A0B24845A1
:10226000EED910E0A0B2B1B2424600F00FF838B299
:10227000471B38B20134002844BF5E4400EB0A0714
:10228000A0B24845EED901B0BDE8F08F10B582B0DC
:1022900014468209042A98BFA92901D902B010BDA9
:1022A00002460B4600F0D0FB60BA40F60004C4F2D0
:1022B0000104ADF80600204610210022FEF7CEFBF7
:1022C000204610210022FEF7C9FB04F580600121A1
:1022D0000122FEF7C3FB40F25420C2F200000DF1D0
:1022E000060102224FF0FF33FFF700F820461021CD
:1022F0000122FEF7B3FB204610210122FEF7AEFBC0
:1023000002B010BD2DE9F04F81B0054640F6000B3C
:102310000020002140F23F12A923C4F2010B4FF02C
:10232000000900F091FB584610210022FEF796FBB1
:1023300040F254282F0A0BF58066C2F200080DF116
:10234000020A00BF002400BF5846102100228DF869
:1023500002708DF80350FEF781FB30460121012207
:10236000FEF77CFB4046514602224FF0FF33FEF75A
:10237000BDFF584610210122FEF770FBA92C04F185
:102380000104E1D3B9F59F7F09F10109DAD9584673
:1023900010210122FEF762FB01B0BDE8F08F0000C2
:1023A000F0B585B01420FEF737FA40F60004C4F209
:1023B000010404F58065284602210022FEF74EFB49
:1023C0001420FEF729FA2846022101220127FEF7F0
:1023D00045FB9620FEF720FA3A208DF800002046B3
:1023E00010210022FEF73AFB284601210022FEF7C9
:1023F00035FB40F25426C2F20006694630460122FF
:102400004FF0FF33FEF772FF204610210122FEF746
:1024100025FB55208DF80000204610210022FEF7F4
:102420001DFB284601210122FEF718FB69463046B4
:1024300001224FF0FF33FEF759FF20461021012201
:10244000FEF70CFBB2208DF8000020461021002280
:10245000FEF704FB284601210022FEF7FFFA694639
:10246000304601224FF0FF33FEF740FF2046102197
:102470000122FEF7F3FA3320019040F60C40C3F23C
:1024800000300090204610210022FEF7E7FA28468F
:1024900001210122FEF7E2FA6946304605224FF09B
:1024A000FF33FEF723FF204610210122FEF7D6FA64
:1024B00036208DF80000204610210022FEF7CEFACB
:1024C000284601210022FEF7C9FA6946304601225A
:1024D0004FF0FF33FEF70AFF204610210122FEF7DE
:1024E000BDFAA0208DF80000204610210022FEF742
:1024F000B5FA284601210122FEF7B0FA69463046B6
:1025000001224FF0FF33FEF7F1FE20461021012299
:10251000FEF7A4FAB7208DF8000020461021002213
:10252000FEF79CFA284601210022FEF797FA694639
:10253000304601224FF0FF33FEF7D8FE204610212F
:102540000122FEF78BFA35208DF80000204610217D
:102550000022FEF783FA284601210122FEF77EFAC7
:102560006946304601224FF0FF33FEF7BFFE20469A
:1025700010210122FEF772FABB208DF800002046E0
:1025800010210022FEF76AFA284601210022FEF7F8
:1025900065FA6946304601224FF0FF33FEF7A6FE8A
:1025A000204610210122FEF759FA19208DF800006B
:1025B000204610210022FEF751FA2846012101226F
:1025C000FEF74CFA6946304601224FF0FF33FEF722
:1025D0008DFE204610210122FEF740FAC0208DF822
:1025E0000000204610210022FEF738FA284601217B
:1025F0000022FEF733FA6946304601224FF0FF33DE
:10260000FEF774FE204610210122FEF727FA2C2047
:102610008DF80000204610210022FEF71FFA284600
:1026200001210122FEF71AFA6946304601224FF0D5
:10263000FF33FEF75BFE204610210122FEF70EFA63
:10264000C2208DF80000204610210022FEF706FA75
:10265000284601210022FEF701FA69463046012290
:102660004FF0FF33FEF742FE204610210122FEF715
:10267000F5F92046102100228DF80070FEF7EEF9E2
:10268000284601210122FEF7E9F969463046012278
:102690004FF0FF33FEF72AFE204610210122FEF7FD
:1026A000DDF9C3208DF80000204610210022FEF73E
:1026B000D5F9284601210022FEF7D0F969463046B7
:1026C00001224FF0FF33FEF711FE204610210122B8
:1026D000FEF7C4F912208DF80000204610210022D8
:1026E000FEF7BCF9284601210122FEF7B7F9694639
:1026F000304601224FF0FF33FEF7F8FD204610214F
:102700000122FEF7ABF9C4208DF80000204610210D
:102710000022FEF7A3F9284601210022FEF79EF9C8
:102720006946304601224FF0FF33FEF7DFFD2046B9
:1027300010210122FEF792F920208DF8000020469A
:1027400010210022FEF78AF9284601210122FEF716
:1027500085F96946304601224FF0FF33FEF7C6FD8A
:10276000204610210122FEF779F9C6208DF80000DD
:10277000204610210022FEF771F92846012100228F
:10278000FEF76CF96946304601224FF0FF33FEF741
:10279000ADFD204610210122FEF760F90F208DF8D3
:1027A0000000204610210022FEF758F9284601219A
:1027B0000122FEF753F96946304601224FF0FF33FC
:1027C000FEF794FD204610210122FEF747F9D020A4
:1027D0008DF80000204610210022FEF73FF9284620
:1027E00001210022FEF73AF96946304601224FF0F6
:1027F000FF33FEF77BFD204610210122FEF72EF964
:10280000A4208DF80000204610210022FEF726F9B2
:10281000284601210122FEF721F9694630460122AE
:102820004FF0FF33FEF762FD204610210122FEF734
:1028300015F9A1208DF80000204610210022FEF796
:102840000DF9284601210122FEF708F969463046B4
:1028500001224FF0FF33FEF749FD204610210122EF
:10286000FEF7FCF8E0208DF8000020461021002241
:10287000FEF7F4F8284601210022FEF7EFF869463A
:10288000304601224FF0FF33FEF730FD2046102185
:102890000122FEF7E3F842F21F30039041F64C00AC
:1028A000C0F60D30029042F61330C5F23F40019061
:1028B00040F2D040C1F20D100090204610210022BD
:1028C000FEF7CCF8284601210122FEF7C7F8694639
:1028D00030460E224FF0FF33FEF708FD2046102150
:1028E0000122FEF7BBF8E1208DF800002046102100
:1028F0000022FEF7B3F8284601210022FEF7AEF8C9
:102900006946304601224FF0FF33FEF7EFFC2046C8
:1029100010210122FEF7A2F842F22030039042F685
:102920005170C1F61F70029042F61340C4F23F404E
:10293000019040F2D040C1F20C10009020461021CE
:102940000022FEF78BF8284601210122FEF786F8C7
:10295000694630460E224FF0FF33FEF7C7FC204693
:1029600010210122FEF77AF821208DF80000204680
:1029700010210022FEF772F8284601210022FEF7FE
:102980006DF86946304601224FF0FF33FEF7AEFC8A
:10299000204610210122FEF761F811208DF8000079
:1029A000204610210022FEF759F828460121002276
:1029B000FEF754F86946304601224FF0FF33FEF728
:1029C00095FC204610210122FEF748F87820FDF7FB
:1029D00023FF13208DF80000204610210022FEF76F
:1029E0003DF8284601210022FEF738F869463046B6
:1029F00001224FF0FF33FEF779FC2046102101221F
:102A0000FEF72CF829208DF8000020461021002226
:102A1000FEF724F8284601210022FEF71FF8694638
:102A2000304601224FF0FF33FEF760FC20461021B4
:102A30000122FEF713F83220FDF7EEFE0020FFF72B
:102A400061FC05B0F0BD00002DE9F04784B040F610
:102A50000004C4F2010416460D4607462046102124
:102A600000229946FDF7FAFF2A208DF80D00204636
:102A70001021002205F1230AFDF7F0FF04F580651F
:102A8000284601210022FDF7E9FF40F25428C2F256
:102A900000080DF10D01404601224FF0FF33FEF713
:102AA00025FC204610210122FDF7D8FF380A8DF8B9
:102AB0000900300A8DF80B002046102100228DF805
:102AC0000A708DF80C60FDF7C9FF2846012101222C
:102AD000FDF7C4FF0DF10901404604224FF0FF331A
:102AE000FEF704FC20461021012209F12306FDF720
:102AF000B5FF2B208DF80E00204610210022FDF797
:102B0000ADFF284601210022FDF7A8FF0DF10E01BF
:102B1000404601224FF0FF33FEF7E8FB204610212C
:102B20000122FDF79BFF4FEA1A208DF80500300ABD
:102B30008DF807002046102100228DF806A08DF8A0
:102B40000860FDF78BFF284601210122FDF786FF73
:102B50000DF10501404604224FF0FF33FEF7C6FB9E
:102B6000204610210122FDF779FF2C208DF80F005F
:102B7000204610210022FDF771FF28460121002286
:102B8000FDF76CFF0DF10F01404601224FF0FF33BE
:102B9000FEF7ACFB204610210122FDF75FFF204627
:102BA00010210122FDF75AFF04B0BDE8F0870000B4
:102BB0002DE9F04F85B040F60004C4F201049046C0
:102BC000894605462046102100221E46FDF746FF95
:102BD000F7B2C6F30726E81909EB060101380139F7
:102BE00082B28BB228464946FFF72EFF002E02968E
:102BF00018BF002F08D1204610210122FDF72EFF1B
:102C000005B0BDE8F08F00BFDDE90E06029A109B0B
:102C1000A8F1200151434FEA162B40F2542600EB55
:102C200041004FEA1328002104F58065C2F2000636
:102C3000019004E00399029801318142DBD00198B0
:102C40004FF0000930F811A003911EE010981021F8
:102C50008DF81100204600228DF81080FDF7FEFE51
:102C6000284601210122FDF7F9FE304604A902227F
:102C70004FF0FF33FEF73AFB204610210122FDF70B
:102C8000EDFE09F101094F45D4D00AFA09F000041C
:102C9000DCD50F9810218DF81300204600228DF806
:102CA00012B0FDF7DBFE284601210122FDF7D6FE1A
:102CB00030460DF11201DAE72DE9F04F85B00746F5
:102CC0000E989246049040F600000D46DDE90F6B29
:102CD000C4F20100102100221C46FDF7BFFE9AF845
:102CE00000203AB3C4F307285FFA84F90AF1010A15
:102CF0000FE000BF0498A9B2CDE90006B8B2D2B285
:102D00002346CDF808B0FFF753FF4F441AF8012BC4
:102D100082B1B8B24844B0F5A07FEBD34544A8B225
:102D20004044A92806D8D0B220284FF00007E1D1AE
:102D3000ECE700BF40F60000C4F2010010210122C0
:102D400005B0BDE8F04FFDF789BE000070470000F8
:102D50002DE9F04784B040F60048C4F201088A46E5
:102D6000064640464FF4805100224FF00009FDF71F
:102D700075FE802040F2AC2540EA4600C2F2000514
:102D80008DF8090064240DF1090102AA28460123E7
:102D90000094FEF7A9FB0DF10B010DF10A02284684
:102DA00001238DF80B900094FEF79EFB9DF80A70AE
:102DB00040464FF480510122FDF750FE40464FF44B
:102DC0008051002247EA0A07FDF748FE7E2000EA0C
:102DD00046008DF80D000DF10D0103AA28460123D0
:102DE0000094FEF781FB0DF10F010DF10E02284654
:102DF00001238DF80F700094FEF776FB40464FF4E8
:102E000080510122FDF72AFE04B0BDE8F0870000E2
:102E1000FDF730BE704700002DE9F04184B040F26C
:102E20001000C2F20000D0E900304FF6E07546F223
:102E300045120024CDE90005C0F600020A200A214F
:102E40000294FFF739FF4FF6FF772820462128220A
:102E500078230097FFF7BAF940F20808C2F2000899
:102E6000D8E900304FF47846CDE9000675A20A2073
:102E700078210294FFF720FF32203C215A223C2384
:102E80000097FFF7A3F928203C210A224FF6FF7391
:102E9000FFF7FCF86E203C2196223C230097FFF7B9
:102EA00095F964203C210A224FF6FF73FFF7EEF8F4
:102EB000A0204621A0226E230097FFF787F9A020CB
:102EC0003C210A224FF6FF73FFF7E0F8AA20782191
:102ED000D22278230097FFF779F9A02078210A22DF
:102EE0004FF6FF73FFF7D2F8DC204621DC226E2379
:102EF0000097FFF76BF9DC2078210A224FF6FF7369
:102F0000FFF7C4F8D8E9003050A2CDE90006C82088
:102F100041210294FFF7D0FE6420FDF77DFC0020E4
:102F2000FFF7F0F9FA2032210A224FF6E073FFF79B
:102F3000ADF8FA203C21FA225A230095FFF746F912
:102F4000FA205A21E62278230095FFF73FF9FA206C
:102F50005A214FF4877278230095FFF737F9FA204A
:102F60004B21E6224B230095FFF730F9FA204B2145
:102F70004FF487724B230095FFF728F91E2032216A
:102F80000A224FF6E073FFF781F81E203C211E2233
:102F90005A230095FFF71AF91E205A210A22782396
:102FA0000095FFF713F91E205A213222782300954D
:102FB000FFF70CF91E204B210A224B230095FFF747
:102FC00005F91E204B2132224B230095FFF7FEF816
:102FD00000F092FAD8E9003046F26012CDE900051F
:102FE000C0F60002642028210294FFF765FED8E9AC
:102FF000003046F25612CDE90005C0F6000264200A
:1030000046210294FFF758FED8E9003046F26912D3
:10301000CDE90005C0F60002642064210294FFF7A8
:103020004BFE40F23821C2F20001486830B1896895
:1030300021B104B0BDE8F04100F0CABA04B0BDE867
:10304000F08100BF466F726573740000426F737346
:103050000000000010B584B00446FDF7BDFAD8B3F7
:10306000032C45D0022C39D0012C35D10020FFF79C
:1030700049F940F22A11C2F2000140F2382291F9D6
:103080000010C2F2000202201070C1EBC10040F239
:103090005021C2F20001097840F22403C2F2000379
:1030A000292401FB043140F2F203C2F2000391F83B
:1030B000281003EB800040F25E13C1EB0111C2F255
:1030C000000303EB410150609160FDF76BFA04B01F
:1030D000BDE81040FFF7A0BE04B010BD00200024E2
:1030E000FFF710F940F23820C2F20000032108E097
:1030F00000200024FFF706F940F23820C2F2000059
:10310000042140F21002C2F20002D2E90032017042
:103110004FF6E070CDE9002046F27B12C0F60002C7
:10312000322032210294FFF7C7FD04B010BD000029
:1031300010B584B00446FDF741FA002800F09080F5
:103140006420FDF769FB207803282BD0022815D0D6
:1031500001283ED140F20800C2F20000D0E9003060
:103160004FF6E07146F245124FF0000CCDE9000138
:10317000C0F6000255203C2126E000BF40F20800C6
:10318000C2F20000D0E900304FF6E07146F24E1274
:103190004FF0000CCDE90001C0F60002552064217B
:1031A00012E000BF40F20800C2F20000D0E9003097
:1031B0004FF6E07146F23D124FF0000CCDE90001F0
:1031C000C0F6000255208C21CDF808C0FFF774FD31
:1031D000207802289CBF0130207003282AD00228C2
:1031E00014D001283CD140F20800C2F20000D0E91E
:1031F00000304FF4784146F245124FF0000CCDE913
:103200000001C0F6000255203C2125E040F20800F4
:10321000C2F20000D0E900304FF4784146F24E127D
:103220004FF0000CCDE90001C0F6000255206421EA
:1032300012E000BF40F20800C2F20000D0E9003006
:103240004FF4784146F23D124FF0000CCDE90001F9
:10325000C0F6000255208C21CDF808C0FFF72CFDE8
:10326000FDF7C8F9002867D06420FDF7D5FA20786B
:1032700003282BD0022815D001283ED140F20800A7
:10328000C2F20000D0E900304FF6E07146F245127C
:103290004FF0000CCDE90001C0F6000255203C21A2
:1032A00026E000BF40F20800C2F20000D0E9003082
:1032B0004FF6E07146F24E124FF0000CCDE90001DE
:1032C000C0F600025520642112E000BF40F2080061
:1032D000C2F20000D0E900304FF6E07146F23D1234
:1032E0004FF0000CCDE90001C0F6000255208C2102
:1032F000CDF808C0FFF7E0FC2078022824BF013891
:103300002070C0B203282FD0022817D0012813D173
:1033100040F20800C2F20000D0E900304FF47841DA
:1033200046F245120024CDE90001C0F60002552006
:103330003C210294FFF7C0FC04B010BD40F208002D
:10334000C2F20000D0E900304FF4784146F24E124C
:103350000024CDE90001C0F600025520642102944A
:10336000FFF7AAFC04B010BD40F20800C2F2000052
:10337000D0E900304FF4784146F23D120024CDE907
:103380000001C0F6000255208C210294FFF794FC46
:1033900004B010BD2DE9F04389B046F2731890F9DE
:1033A0001820C0F6000804AC054620464146FCF74C
:1033B00045FF40F21806C2F20006D6E900304FF68B
:1033C000E0774FF00009CDE90007282014212246BC
:1033D000CDF80890FFF770FC95F9152095F9143099
:1033E00046F26F11C0F600012046FCF727FFD6E930
:1033F00000308221CDE9000723202246CDF8089035
:10340000FFF75AFC95F9162020464146FCF716FFB7
:10341000D6E900308C21CDE9000723202246CDF8E3
:103420000890FFF749FCB5F91A2046F27711C0F66B
:1034300000012046FCF702FFD6E900309621CDE9D5
:1034400000071E202246CDF80890FFF735FC09B092
:10345000BDE8F08380B584B0032835D002281BD0A6
:1034600001281CBF04B080BD40F20800C2F2000079
:10347000D0E900304FF4784146F245124FF0000C8D
:10348000CDE90001C0F6000255203C21CDF808C06E
:10349000FFF712FC04B080BD40F20800C2F2000049
:1034A000D0E900304FF4784146F24E124FF0000C54
:1034B000CDE90001C0F6000255206421CDF808C016
:1034C000FFF7FAFB04B080BD40F20800C2F2000032
:1034D000D0E900304FF4784146F23D124FF0000C35
:1034E000CDE90001C0F6000255208C21CDF808C0BE
:1034F000FFF7E2FB04B080BD2DE9F04383B04FF647
:10350000E0770A2078214FF4A07278230097FEF725
:103510005DFE40F21805C2F20005D5E9003046F222
:103520002818C0F600080024CDE900070A208221EF
:1035300042460294FFF7C0FBD5E9003046F222195B
:10354000C0F60009CDE900070A208C214A46029402
:10355000FFF7B2FBD5E900301BA2CDE900070A2036
:1035600014210294FFF7A8FBD5E9003046F22D168E
:10357000C0F60006CDE900070A20962132460294E3
:10358000FFF79AFBD5E900308221CDE90007FA2048
:1035900042460294FFF790FBD5E900308C21CDE93B
:1035A0000007FA204A460294FFF786FBD5E900306F
:1035B0009621CDE90007FA2032460294FFF77CFB02
:1035C00003B0BDE8F08300BF4C4556454C3A20009F
:1035D0002DE9F04188B00D46FFF7DCFEB5F9143057
:1035E000B5F9162046F26F1103ACC0F60001204673
:1035F000FCF724FE40F21807C2F20007D7E90030BA
:103600004FF6E0764FF00008CDE900064FF48270E7
:1036100082212246CDF80880FFF74EFBB5F918202D
:1036200046F27311C0F600012046FCF707FED7E909
:1036300000308C21CDE900064FF487702246CDF88A
:103640000880FFF739FBB5F91C2046F27711C0F668
:1036500000012046FCF7F2FDD7E900309621CDE9C4
:1036600000064FF487702246CDF80880FFF724FB50
:1036700008B0BDE8F0810000FEE7000070B584B03E
:1036800040F21005C2F20005D5E900304FF6E076B1
:1036900046F233120024CDE90006C0F600025520A0
:1036A00014210294FFF708FBD5E900300EA2CDE902
:1036B000000632203C210294FFF7FEFAD5E90030E3
:1036C0000DA2CDE90006322064210294FFF7F4FA3E
:1036D000D5E900300BA2CDE900066E208C210294C2
:1036E000FFF7EAFA04B070BD20504C454153452025
:1036F0005343414E000000002020594F55522043B3
:1037000041524400524649440000000090B0FDF789
:10371000BFF900240120CDE90B44CDE9094406900E
:103720000A904FF4E0104FF4803102250F9006A864
:10373000CDE90714CDE90D51FDF71EFB20B1EFF3E4
:10374000108072B6FEE700BF0F20CDE90105802092
:10375000CDE9030401A802210594FDF72FFA28B151
:10376000EFF3108072B600BFFEE700BF002741F202
:103770001800CDE90877CDE90677C4F202000168A8
:1037800040F6000941F0200101600168C4F201091E
:1037900001F02001019101990168002241F004012A
:1037A000016001684FF4467601F00401019101992E
:1037B000016841F00801016000684FF4467100F0B3
:1037C0000800019001984846FDF748F909F5806521
:1037D000284641F20101002241F20108FDF73EF9BD
:1037E000069606AE4FF0010A022448463146CDE95E
:1037F00007A70994FDF724F828463146CDE9068A43
:10380000CDE90874FDF71CF84FF40C40CDE906072C
:10381000484631460897FDF713F80820CDE906071A
:10382000284631460897FDF70BF840F2542009F579
:103830002051C2F200004FF400780A254FF482763E
:1038400080E8C200C0E90377C0E90578C761C0E934
:103850000877C0E90A75FDF78FFC28B1EFF31080F7
:1038600072B600BFFEE700BF40F2AC20A9F55041A0
:10387000C2F2000080E8C200C0E90377C0E9057821
:10388000C0E90777C0E90977C562FDF775FC28B183
:10389000EFF3108072B600BFFEE700BF0020FEF716
:1038A00031FDFEF77DFDFDF7F1FFFFF7E7FE40F28A
:1038B000382540F2D614C2F20005C2F2000400BF5F
:1038C000FCF7A6FE28780128FAD12078FFF7C2FD80
:1038D0002078FFF7BFFB2046FFF72AFCF0E73038DF
:1038E0000A2801D201207047002070470000000024
:1038F00000000000010203040607080900000000A0
:1039000000000000000000000000000000000000B7
:1039100000000000000000000000000000000000A7
:103920000000000C000C000C000C000C000C000C43
:10393000000C000C000C000C0000000C000C00003F
:10394000000000000000001B001B001B001B001BF0
:103950000000000000000000000000000000000067
:10396000000000000000000000008019801980198C
:103970008019C07FC07F80190033C07FC07F0033B3
:103980000033003300330000000000000000001E80
:10399000003F807580650074003C001E00078005B4
:1039A000806580658075003F001E000400040000F3
:1039B0000000007000D840D8C0D880D9007300063D
:1039C000000C801BC036C066C046C00680030000E5
:1039D000000000000000001E003F003300330033F1
:1039E000001E000CC03CC066806380618063C03EE6
:1039F000801C0000000000000000000C000C000C07
:103A0000000C000C0000000000000000000000009E
:103A10000000000000000000000000008000000125
:103A20000003000600060004000C000C000C000C53
:103A3000000C000C000400060006000300018000DA
:103A4000002000100018000C000C00040006000606
:103A500000060006000600060004000C000C00181A
:103A6000001000200000000C002D003F001E00335D
:103A70000000000000000000000000000000000046
:103A80000000000000000000000000000000000C2A
:103A9000000C000C000CC0FFC0FF000C000C000C60
:103AA000000C00000000000000000000000000000A
:103AB0000000000000000000000000000000000006
:103AC000000000000000000C000C000400040008CE
:103AD00000000000000000000000000000000000E6
:103AE0000000001E001E000000000000000000009A
:103AF00000000000000000000000000000000000C6
:103B00000000000000000000000000000000000CA9
:103B1000000C000000000000000000030003000390
:103B20000006000600060006000C000C000C000C4D
:103B30000018001800180000000000000000001E1F
:103B4000003F0033806180618061806D806D8061A5
:103B5000806180610033003F001E00000000000013
:103B600000000006000E001E0036002600060006BB
:103B7000000600060006000600060006000600001B
:103B8000000000000000001E003F80738061806123
:103B9000800100030006000C001800300060807FE8
:103BA000807F0000000000000000001C003E006359
:103BB00000630003000E000E00038001800180619D
:103BC0008073003F001E000000000000000000069F
:103BD000000E000E001E001E0016003600360066A5
:103BE000807F807F000600060006000000000000C5
:103BF0000000007F007F006000600060006E007FBA
:103C000080638001800180618073003F001E00009E
:103C1000000000000000001E003F80338061006053
:103C2000006E007F80738061806180618033003F1F
:103C3000001E0000000000000000807F807F8001E7
:103C40000003000300060006000C000C000C000836
:103C50000018001800180000000000000000001EFE
:103C6000003F8063806180610021001E003F806111
:103C7000806180618061003F001E00000000000044
:103C80000000001E003F00738061806180618073CE
:103C9000803F801D800180610073003F001E000096
:103CA0000000000000000000000000000000000C08
:103CB000000C000000000000000000000000000CEC
:103CC000000C0000000000000000000000000000E8
:103CD00000000000000C000C0000000000000000CC
:103CE0000000000C000C00040004000800000000AC
:103CF0000000000080008003000E003800600038E3
:103D0000000E8003800000000000000000000000A2
:103D100000000000000000000000807F807F0000A5
:103D20000000807F807F0000000000000000000095
:103D300000000000000000000000000000400070D3
:103D4000001C000780010007001C007000400000FC
:103D500000000000000000000000001F803FC07154
:103D6000C060C000C00180030007000E000C000C02
:103D70000000000C000C0000000000000000001E0D
:103D8000003F803180718063806F806D806D806FB7
:103D9000806700600032003E001C00000000000050
:103DA0000000000E000E001B001B001B001B8031DA
:103DB0008031803F803F8031C060C060C0600000C3
:103DC000000000000000007C007E006300630063D0
:103DD0000063007E007E0063806180618063007FFD
:103DE000007E0000000000000000001E003F803147
:103DF00080610060006000600060006000608061C1
:103E00008031003F001E0000000000000000007C28
:103E1000007F006380638061806180618061806178
:103E2000806100630063007E007C000000000000F1
:103E30000000807F807F0060006000600060007F85
:103E4000007F0060006000600060807F807F000075
:103E5000000000000000807F807F00600060006044
:103E60000060007F007F0060006000600060006014
:103E700000600000000000000000001E003F8031D4
:103E800080610060006000608063806380618061A9
:103E90008031803F001E00000000000000008061B3
:103EA00080618061806180618061807F807F8061CE
:103EB000806180618061806180610000000000009D
:103EC0000000003F003F000C000C000C000C000C38
:103ED000000C000C000C000C000C003F003F000028
:103EE000000000000000800180018001800180014D
:103EF0008001800180018001806180618073003FCA
:103F0000001E0000000000000000C060806100632F
:103F100000660066006C0078007C00660066006346
:103F200080618061C060000000000000000000604F
:103F30000060006000600060006000600060006081
:103F4000006000600060807F807F00000000000053
:103F50000000C071C071C07BC07AC06AC06AC06E08
:103F6000C064C060C060C060C060C060C06000006D
:103F70000000000000008071807180798079807974
:103F8000806D806D806D80658067806780678063ED
:103F900080630000000000000000001E003F0033AE
:103FA0008061806180618061806180618061806109
:103FB0000033003F001E0000000000000000007EF3
:103FC000007F80638061806180618063007F007E0C
:103FD0000060006000600060006000000000000001
:103FE0000000001E003F00338061806180618061BD
:103FF00080618061806580670033803F401E0000E3
:10400000000000000000007E007F8063806180610E
:104010008063007F007E00660063006380618061D2
:10402000C0600000000000000000000E001F803192
:10403000803100300038001E0007800380618061FD
:104040008031003F001E0000000000000000C0FFA3
:10405000C0FF000C000C000C000C000C000C000C4D
:10406000000C000C000C000C000C00000000000014
:104070000000806180618061806180618061806119
:1040800080618061806180618073003F001E00005C
:10409000000000000000C060C060C060803180315E
:1040A0008031001B001B001B001B000E000E000EC9
:1040B00000040000000000000000C0C0C0C0C0C07C
:1040C000C0C0C0C0C0CC804C804C805E805280524A
:1040D0008073806180610000000000000000C0C0AB
:1040E000806080610033003B001E000C000C001E4D
:1040F000001F003B80718061C0C000000000000014
:104100000000C0C08061806100330033001E001ECB
:10411000000C000C000C000C000C000C000C00004B
:10412000000000000000803F803F8001000300038A
:104130000006000C000C0018001800300060807FA2
:10414000807F000000000000000F000F000C000C3A
:10415000000C000C000C000C000C000C000C000CFF
:10416000000C000C000C000C000F000F00000018E9
:1041700000180018000C000C000C000C00060006D3
:10418000000600060003000300030000000000001A
:10419000001E001E000600060006000600060006BF
:1041A00000060006000600060006000600060006DF
:1041B000001E001E0000000C000C001E0012003348
:1041C00000338061806100000000000000000000FA
:1041D00000000000000000000000000000000000DF
:1041E00000000000000000000000000000000000CF
:1041F0000000000000000000E0FF000000000038A8
:104200000018000C0000000000000000000000008A
:10421000000000000000000000000000000000009E
:1042200000000000000000000000001F803F8061CF
:104230008001801F803F80618063807FC0380000E4
:104240000000000000000060006000600060006E80
:10425000007F807380618061806180618073007FF6
:10426000006E0000000000000000000000000000E0
:104270000000001E003F807380610060006080616C
:104280008073003F001E000000000000000080015D
:10429000800180018001801D803F8073806180618A
:1042A000806180618073803F801D000000000000FD
:1042B00000000000000000000000001E003F00732E
:1042C0008061807F807F00608071003F001E000061
:1042D000000000000000C007C00F000C000C807F31
:1042E000807F000C000C000C000C000C000C000C7B
:1042F000000C0000000000000000000000000000B2
:10430000801D803F807380618061806180618073E7
:10431000803F801D80018063007F003E00000060C0
:10432000006000600060006F807F8071806180614C
:104330008061806180618061806100000000000018
:1043400000000006000600000000003E003E0006DF
:104350000006000600060006000600060006000033
:10436000000000000006000600000000003E003EC5
:10437000000600060006000600060006000600060D
:1043800000060046007E003C000000600060006007
:104390000060806100630066006C007C0076006352
:1043A00000638061C0600000000000000000003E6B
:1043B000003E000600060006000600060006000695
:1043C00000060006000600060006000000000000CF
:1043D0000000000000000000000080DDC0FFC0CE33
:1043E000C0CCC0CCC0CCC0CCC0CCC0CCC0CC0000F9
:1043F0000000000000000000000000000000006F4E
:10440000807F807180618061806180618061806176
:1044100080610000000000000000000000000000BB
:104420000000001E003F80738061806180618061B8
:104430008073003F001E000000000000000000002C
:1044400000000000006E007F8073806180618061E9
:1044500080618073007F006E00600060006000601B
:104460000000000000000000801D803F807380611C
:104470008061806180618073803F801D8001800148
:1044800080018001000000000000000000000067C3
:10449000803F003900300030003000300030003004
:1044A00000300000000000000000000000000000DC
:1044B0000000001E803F80610060007F803F80011F
:1044C0008061007F001E000000000000000000006E
:1044D000000800180018007F007F0018001800185E
:1044E000001800180018801F800F00000000000056
:1044F0000000000000000000000080618061806119
:1045000080618061806180618063807F803D000088
:104510000000000000000000000000000000C0607B
:10452000803180318031001B001B001B000E000E0B
:104530000006000000000000000000000000000075
:10454000000080DD80DD80DD0055005500550077DE
:1045500000770022002200000000000000000000A0
:10456000000000000000806100330033001E000CDA
:10457000000C001E003300338061000000000000CA
:104580000000000000000000806180618031003385
:104590000033001B001B001B000E000E000E001C51
:1045A000007C007000000000000000000000C07FE0
:1045B000C07F800100030006000C00180030C07F9F
:1045C000C07F000000000000800380070006000696
:1045D000000600060006000E001C001C000E00066F
:1045E000000600060006000680078003000600069D
:1045F000000600060006000600060006000600068B
:10460000000600060006000600060006000600067A
:104610000038003C000C000C000C000C000C000EDC
:1046200000070007000E000C000C000C000C000C32
:10463000003C003800000000000000000000000006
:1046400000008038807F004700000000000000006C
:10465000000000000000000000000000000000005A
:10466000000000000000000000000000000000004A
:10467000000000000000000000000000000000003A
:10468000000000000000000000000000E003E00364
:10469000E003E003E003E003E003E003C003C00342
:1046A000C001C001C001C001C00100000000000045
:1046B000E003E003E0030000000000000000000051
:1046C0003C1E3C1E3C1E3C1E3C1E3C1E3C1E000074
:1046D00000000000000000000000000000000000DA
:1046E00000000000000000000000000000000000CA
:1046F00000000000CE01CE03DE039E039C039C0756
:10470000FF3FFF7F3807380F780F780F780EFFFFD5
:10471000FFFFF01EF01CE01CE03CE03DE039000033
:104720000000000000000000FC03FE0FEE1FE01E72
:10473000E01EE01EE01EE01FE00FE007F003FC01BA
:10474000FE01FE01FE01FE01FE01FE01FE3DFC3FF9
:10475000F00FE001E001000000000000033E07F759
:104760008FE78EE79EE3BCE3B8E7F8E7F0F7E03FBA
:10477000C001FF03FF07F307F30FF31EF33CF33809
:10478000F3787FF03FE00000000000000000000030
:10479000E007F80F780F781F781F781F780FF00F59
:1047A000E00F801FC37FC3FBE7F3F7F1F7F0FFF0E3
:1047B0007FF03EF87F7CFF3FEF1F0000000000000D
:1047C00000000000E003E003E003E003E003C003B7
:1047D000C001000000000000000000000000000018
:1047E00000000000000000000000000000000000C9
:1047F00000000000000000003F007C00F001E0012C
:10480000C003C00780078007800F000F000F000F54
:10481000000F000F000F800F80078007C007C00344
:10482000E001F0017C003F000F000000007E001F4F
:10483000C007C003E001F001F000F000F8007800CC
:1048400078007800780078007800F800F000F00038
:10485000F001E001C003C007001F007E00780000E7
:10486000E003C003C001CE39FF3F7F3F2003700348
:10487000F807780F3C1F3806000000000000000019
:104880000000000000000000000000000000000028
:104890000000000000000000000000000000000018
:1048A000C001C001C001C001C001C001C001FFFFC3
:1048B000FFFFC001C001C001C001C001C001000074
:1048C00000000000000000000000000000000000E8
:1048D00000000000000000000000000000000000D8
:1048E00000000000000000000000E003E003E0031F
:1048F000E003E001E001E001C001800300000000EE
:1049000000000000000000000000000000000000A7
:104910000000FE3FFE3F000000000000000000001D
:104920000000000000000000000000000000000087
:104930000000000000000000000000000000000077
:104940000000000000000000000000000000000067
:104950000000E003E003E003E003000000000000CB
:10496000000000000F000F001E001E003C003C0075
:1049700078007800F000F000E001E001C003C0031F
:1049800080078007000F000F001E001E003C003C47
:104990000078007800F00000F007F80F7C1F3E3E22
:1049A0001E3C1F7C1F7C0F780F780F780F780F78D4
:1049B0000F780F781F7C1F7C1E3C3E3E7C1FF80F3B
:1049C000F00700000000000000000000F000F00709
:1049D000F03FF03FF001F001F001F001F001F001D3
:1049E000F001F001F001F001F001F001F001F0013F
:1049F000F001FF3FFF3F000000000000000000004A
:104A0000E00FF83F7C3C3C003E003E003E003C0096
:104A10003C007C00F800F001E003C0078007000FB5
:104A2000001E003E003CFE3FFE3F00000000000074
:104A300000000000F00FF81F7C1C3E003E003E000E
:104A40003C003C00F800F00FF80F7C003E001E0018
:104A50001E001E001E003E007C1CF81FE01F000010
:104A600000000000000000007800F800F800F801E5
:104A7000F803F807F807780F781E781E783C7878E6
:104A80007878FFFFFFFF78007800780078007800E2
:104A9000780000000000000000000000FC1FFC1F68
:104AA000FC1F001E001E001E001E001EE01FF81F3F
:104AB000FC007C003E003E001E003E003E003C002C
:104AC0007C1CF81FE01F0000000000000000000038
:104AD000FC01FE078E0F001F001E003E003C003C44
:104AE000F83DFC3F3E7F1F7E0F3C0F3C0F3C0F3CD0
:104AF0000F3E1F1E3E1FFC0FF003000000000000D1
:104B000000000000FF3FFF3FFF3F0F001E001E00A0
:104B10003C0038007800F000F000E001E001C00344
:104B2000C0038007800F800F000F001F001F0000D0
:104B30000000000000000000F807FC0F3E1F1E1ED2
:104B40001E3E1E3E1E1E3C1FF80FF007F80FFC1EF7
:104B50003E3E1F3C1F7C0F7C0F7C1F3C3E3FFC1FDA
:104B6000F00700000000000000000000F007F80F50
:104B70007C1E3E3C1E3C1F7C1F7C1F7C1F7C1F3C00
:104B80003F3EFF1FEF071F001E001E003E003C00BF
:104B9000F838F03FE01F00000000000000000000B7
:104BA000000000000000000000000000E003E0033F
:104BB000E003E0030000000000000000000000002F
:104BC0000000E003E003E003E00300000000000059
:104BD00000000000000000000000000000000000D5
:104BE000E003E003E003E003000000000000000039
:104BF000000000000000E003E003E003E003E00148
:104C0000E001E001C003800300000000000000009C
:104C10000000000003000F003F00FC00F003C00F85
:104C2000003F00FE003FC00FF003FC003F000F00FC
:104C30000300000000000000000000000000000071
:104C40000000000000000000000000000000000064
:104C5000FFFFFFFF000000000000FFFFFFFF00005C
:104C60000000000000000000000000000000000044
:104C700000000000000000000000000000E000F85C
:104C8000007E801FE007F8017E001F007E00F80113
:104C9000E007801F007E00F800E000000000000038
:104CA00000000000F01FFC3F3E381F381F381E0078
:104CB0001E003C007800F000E001C003C003C00704
:104CC000C007000000000000C007C007C0070000C8
:104CD0000000000000000000F803FE0F1E1F0F3E42
:104CE0007F3CFF78EF79C773C7F38FF38FF38FF3B0
:104CF0009FF39FF3FF73FF7BF779003C1C1FFC0FB2
:104D0000F8030000000000000000000000000000A8
:104D10000000E003E003F007F007F007780F780FDA
:104D20007C0E3C1E3C1E3E3CFE3FFF3F1F780F7832
:104D30000FF007F007F00000000000000000000086
:104D4000000000000000F83FFC3F3E3C1E3C1E3CC3
:104D50001E3C3E3C7C3CF03FF83F7E3C1F3C1F3CF1
:104D60000F3C0F3C1F3CFE3FF83F000000000000DE
:104D700000000000000000000000FF01FF07871F87
:104D8000003E003C007C00780078007800780078D5
:104D9000007C007C003E003F831FFF07FF010000F6
:104DA0000000000000000000000000000000F07F94
:104DB000FC7F7E781F781F780F780F780F780F7838
:104DC0000F780F780F780F781F781E787E78F87F2D
:104DD000E07F000000000000000000000000000074
:104DE0000000FF3FFF3F003E003E003E003E003E11
:104DF000003EFE3FFE3F003E003E003E003E003EC5
:104E0000003EFF3FFF3F00000000000000000000E8
:104E1000000000000000FF1FFF1F001E001E001EFC
:104E2000001E001E001EFF1FFF1F001E001E001E92
:104E3000001E001E001E001E001E000000000000DC
:104E400000000000000000000000FE03FF0F871FAD
:104E5000003E007C007C007800F800F87FF87FF8C6
:104E60000F780F7C0F7C0F3E8F1FFF0FFE0300009B
:104E700000000000000000000000000000001F7C97
:104E80001F7C1F7C1F7C1F7C1F7C1F7C1F7CFF7F67
:104E9000FF7F1F7C1F7C1F7C1F7C1F7C1F7C1F7C57
:104EA0001F7C000000000000000000000000000067
:104EB0000000FF3FFF3FE003E003E003E003E00307
:104EC000E003E003E003E003E003E003E003E003CA
:104ED000E003FF3FFF3F0000000000000000000073
:104EE000000000000000FC1FFC1F7C007C007C0018
:104EF0007C007C007C007C007C007C007C007C00D2
:104F000078007800F838F03FC03F00000000000053
:104F1000000000000000000000001F3C1E3C3C3C64
:104F2000783CF03CE03DE03FC03F803FC03FE03F89
:104F3000F03DF03C783C7C3C3E3C1F3C0F3C00008C
:104F40000000000000000000000000000000003E23
:104F5000003E003E003E003E003E003E003E003E61
:104F6000003E003E003E003E003E003E003EFF3F51
:104F7000FF3F0000000000000000000000000000F3
:104F800000001FF81FFC1FFC3FFE3FFE3FFE7FFF9F
:104F900077FF77FFF7F7E7F7E7F3E7F3C7F307F0F4
:104FA00007F007F007F0000000000000000000001C
:104FB0000000000000000F7C0F7C0F7E0F7F0F7F32
:104FC0008F7F8F7FCF7FEF7BEF79FF79FF78FF783F
:104FD0007F783F783F781F781F780000000000003E
:104FE00000000000000000000000F007FC1F3E3E33
:104FF0001F7C0F780F780FF80FF80FF80FF80FF8E5
:105000000FF80F780F781F7C3E3EFC1FF007000062
:105010000000000000000000000000000000FC3F55
:10502000FF3F1F3E0F3E0F3E0F3E0F3E1F3E3F3ED7
:10503000FC3FF03F003E003E003E003E003E003E92
:10504000003E000000000000000000000000000022
:105050000000F007FC1F3E3E1F7C0F780F780FF812
:105060000FF80FF80FF80FF80FF80F780F781F7C74
:105070003E3EFC1FF8077C003F000F0003000000CD
:10508000000000000000F03FFC3F7E3C3E3C1E3C28
:105090001E3C3E3C3C3CFC3CF03FE03FF03DF83CDD
:1050A0007C3C3E3C1E3C1F3C0F3C000000000000CE
:1050B00000000000000000000000FC07FE1F0E3E84
:1050C000003C003C003C003EC01FF80FFE037F0088
:1050D0001F000F000F001F203E3CFC3FF01F000090
:1050E0000000000000000000000000000000FFFFC2
:1050F000FFFFE003E003E003E003E003E003E0037D
:10510000E003E003E003E003E003E003E003E00387
:10511000E0030000000000000000000000000000AC
:1051200000000F7C0F7C0F7C0F7C0F7C0F7C0F7CB2
:105130000F7C0F7C0F7C0F7C0F7C0F7C1E3C1E3C79
:105140003E3EFC1FF00700000000000000000000D1
:1051500000000000000007F007F007F80F780F7C50
:105160001E3C1E3C1E3E3C1E3C1F781F780FF80F55
:10517000F007F007F007E003E00300000000000084
:105180000000000000000000000003E003F003F056
:1051900007F0E7F3E7F3E7F3E773F77BF77FFF7FCA
:1051A0007F7F7F7F7E7F7E3F3E3E3E3E3E3E0000D5
:1051B000000000000000000000000000000007F8F0
:1051C0000F7C1E3E3E3E3C1FF80FF007E007E00359
:1051D000E003F007F80F7C0F7C1E3E3C1F780F7831
:1051E0000FF00000000000000000000000000000C0
:1051F000000007F807780F7C1E3C1E3E3C1F780F0E
:10520000F80FF007E003E003E003E003E003E0034E
:10521000E003E003E00300000000000000000000E5
:10522000000000000000FF7FFF7F0F001F003E0016
:105230007C00F800F000E001E003C007800F000FE1
:10524000001E003E007CFF7FFF7F0000000000008A
:1052500000000000FF0780078007800780078007A5
:105260008007800780078007800780078007800706
:1052700080078007800780078007800780078007F6
:105280008007FF07FF07000000780078003C003C23
:10529000001E001E000F000F80078007C003C00320
:1052A000E001E001F000F000780078003C003C00F4
:1052B0001E001E000F000F0007000000F07FF0002E
:1052C000F000F000F000F000F000F000F000F0005E
:1052D000F000F000F000F000F000F000F000F0004E
:1052E000F000F000F000F000F000F07FF07F000030
:1052F000C000C001C001E003E003F007F007780739
:10530000780F380F3C1E3C1E1E3C1E3C0F380F7899
:10531000077800000000000000000000000000000E
:10532000000000000000000000000000000000007D
:10533000000000000000000000000000000000006D
:105340000000000000000000000000000000FFFF5F
:10535000FFFF000000000000F0000000000000005F
:10536000000000000000000000000000000000003D
:10537000000000000000000000000000000000002D
:10538000000000000000000000000000000000001D
:105390000000000000000000F80FFC3F7C3C3E00D5
:1053A0003E003E00FE07FE1F3E3E3E7C3E783E7CB9
:1053B0007E7CFF3FCF1F00000000000000000000C7
:1053C000003C003C003C003C003C003CF83DFE3F03
:1053D0003E3F1F3E0F3C0F3C0F3C0F3C0F3C0F3C31
:1053E0001F3C1E3C3E3FFC3FF03B00000000000025
:1053F00000000000000000000000000000000000AD
:10540000FE03FF0F871F003E003E003C007C007C37
:10541000007C003C003E003E871FFF0FFE030000A3
:1054200000000000000000001F001F001F001F0000
:105430001F001F00FF07FF1F3F3E1F3C1F7C1F7CFC
:105440001F7C1F781F781F7C1F7C3F3C7F3EFF1F07
:10545000DF0F00000000000000000000000000005E
:105460000000000000000000F803FC0F3E1F1E3E7D
:105470001F3C1F7CFF7FFF7F007C007C003C003EC8
:10548000071FFF0FFE0300000000000000000000E7
:10549000FF01E103C003C007C007C007FF7FFF7F14
:1054A000C007C007C007C007C007C007C007C007C4
:1054B000C007C007C007C007C00700000000000009
:1054C00000000000000000000000000000000000DC
:1054D000EF07FF1F7F3E1F3C1F7C1F7C1F781F783C
:1054E0001F781F7C1F7C3F3C7F3EFF1FDF0F1E008D
:1054F0001E001E007C38F83F003C003C003C003C95
:10550000003C003CFC3DFE3F9E3F1F3F1F3E1F3CBA
:105510001F3C1F3C1F3C1F3C1F3C1F3C1F3C1F3CB3
:105520001F3C00000000000000000000F001F0013E
:105530000000000000000000E07FE07FE001E001EB
:10554000E001E001E001E001E001E001E001E00153
:10555000E001E001E00100000000000000000000A8
:10556000F800F8000000000000000000F83FF83FDD
:10557000F800F800F800F800F800F800F800F8006B
:10558000F800F800F800F800F800F800F800F00063
:10559000F071E07F003C003C003C003C003C003CE3
:1055A0001F3C3E3C7C3CF83CF03DE03DC03FC03FF2
:1055B000E03FF03DF83C7C3C3E3C1F3C1F3C000083
:1055C0000000000000000000F07FF001F001F00199
:1055D000F001F001F001F001F001F001F001F00143
:1055E000F001F001F001F001F001F001F001F00133
:1055F000F0010000000000000000000000000000BA
:1056000000000000000000009EF7FFFFFFFFFFFF0B
:10561000E7FBE7F9C7F1C7F1C7F1C7F1C7F1C7F178
:10562000C7F1C7F1C7F10000000000000000000052
:10563000000000000000000000000000FC3DFE3FF4
:105640009E3F1F3F1F3E1F3C1F3C1F3C1F3C1F3CFB
:105650001F3C1F3C1F3C1F3C1F3C00000000000083
:10566000000000000000000000000000000000003A
:10567000F007FC1F3E3E1F3C1F7C0F780F780F7811
:105680000F780F781F7C1F3C3E3EFC1FF007000088
:10569000000000000000000000000000000000000A
:1056A00000000000F83DFE3F3E3F1F3E0F3C0F3C18
:1056B0000F3C0F3C0F3C0F3C1F3C1E3E3E3FFC3F4F
:1056C000F83F003C003C003C003C003C0000000077
:1056D0000000000000000000EE07FE1F7E3E1E3CA2
:1056E0001E7C1E781E781E781E781E781E7C3E7CDE
:1056F0007E3EFE1FDE0F1E001E001E001E001E004E
:105700000000000000000000000000007F1FFF1FDD
:10571000E71FC71F871F001F001F001F001F001F5C
:10572000001F001F001F001F001F000000000000DE
:105730000000000000000000000000000000000069
:10574000FC07FE1F0E1E003E003E003FE01FFC0750
:10575000FE003E001E001E003E3CFC3FF01F00000D
:1057600000000000000000000000000000008007B2
:1057700080078007FF7FFF7F800780078007800703
:10578000800780078007800780078007C007FF0326
:10579000FF01000000000000000000000000000009
:1057A00000000000000000001E3C1E3C1E3C1E3C91
:1057B0001E3C1E3C1E3C1E3C1E3C1E3C3E3C7E3C99
:1057C000FE3EFE1FDE0F0000000000000000000093
:1057D00000000000000000000000000007F00F784B
:1057E0000F781E3C1E3C1E3E3C1E3C1E780F780F60
:1057F000F00FF007F007E003E003000000000000F6
:105800000000000000000000000000000000000098
:1058100003F0E3F1E3F3E7F3F7F3F7F3F77F777FD1
:105820007F7F7F7F7F7F3E3E3E3E3E3E3E3E00008E
:105830000000000000000000000000000000000068
:10584000000000000F7C1E3E3C3E3C1FF80FF0079E
:10585000F007E003F007F807F80F7C1E3E3E1F3C00
:105860001F780000000000000000000000000000A1
:10587000000000000000000007F80F780F7C1E3CBD
:105880001E3C3C1E3C1E3C1F780FF80FF007F00733
:10589000E003E003C003C003C0038007800F007F64
:1058A000000000000000000000000000FF3FFF3F7C
:1058B0001F003E007C00F800F001E003C007800FED
:1058C000001F001E003CFF7FFF7F00000000000063
:1058D00000000000FE01E003C003C003C003C003DA
:1058E000E001E001E001C001C003803F803FC00350
:1058F000C001E001E001E001C003C003C003C00338
:10590000E003FE017E000000C001C001C001C00133
:10591000C001C001C001C001C001C001C001C0017F
:10592000C001C001C001C001C001C001C001C0016F
:10593000C001C001C001C001C0010000C03FE003C0
:10594000E001E001E001E001C001C003C003C001CB
:10595000E001FE00FE00E001C001C003C003C00181
:10596000E001E001E001E001E003C03F003F000092
:105970000000000000000000000000000000000027
:10598000000000000000073FC77FE773FFF17EF0D3
:105990000000000000000000000000000000000007
:1059A00000000000000000000000000000000000F7
:1059B00000000000000000000010001000100010A7
:1059C0000010001000000010000000000028002857
:1059D000002800000000000000000000000000009F
:1059E00000240024007C00240048007C004800487B
:1059F000000000000038005400500038001400542B
:105A000000540038001000000020005400580030FE
:105A100000280054001400080000000000100028B6
:105A20000028001000340048004800340000000046
:105A30000010001000100000000000000000000036
:105A400000000000000800100020002000200020BE
:105A500000200020001000080020001000080008AE
:105A6000000800080008000800100020001000389E
:105A700000100028000000000000000000000000EE
:105A80000000000000100010007C0010001000005A
:105A90000000000000000000000000000000000006
:105AA00000000010001000100000000000000000C6
:105AB00000000038000000000000000000000000AE
:105AC00000000000000000000000001000000000C6
:105AD0000008000800100010001000100020002036
